:020000040801F1
:1000000060FD00200D2A0108752F0108912F0108BD
:10001000AD2F0108C92F0108E52F010800000000DD
:100020000000000000000000000000000130010896
:100030001D300108000000008D2A01083930010838
:100040008D2A01088D2A01088D2A01088D2A0108B0
:100050008D2A01088D2A010845300108ED3001087C
:100060008D2A01088D2A01088D2A01088D2A010890
:100070008D2A0108BD8B01088D2A01088D2A0108EF
:100080008D2A01088D2A01088D2A01088D2A010870
:100090008D2A01088D2A01088D2A01088D2A010860
:1000A0008D2A01088D2A01088D2A01088D2A010850
:1000B000AD2801088D2A01088D2A01088D2A010822
:1000C0008D2A01088D2A01088D2A01088D2A010830
:1000D0008D2A01088D2A01088D2A01088D2A010820
:1000E000353101088D2A01088D2A01088D2A010861
:1000F0008D2A01088D2A01088D2A01088D2A010800
:100100008D2A01088D2A01088D2A01088D2A0108EF
:100110008D2A01088D2A01088D2A01088D2A0108DF
:100120008D2A01088D2A01088D2A01088D2A0108CF
:100130008D2A01088D2A01088D2A01088D2A0108BF
:100140008D2A01088D2A01088D2A010855A9020867
:100150008D2A01088D2A01088D2A01088D2A01089F
:100160008D2A01088D2A01088D2A01088D2A01088F
:100170008D2A0108B92801088D2A01088D2A010855
:100180008D2A01088D2A010810B5054C237833B952
:10019000044810B10448AFF300800121217010BD64
:1001A00070060020000000007836050808B5064BF0
:1001B0001BB106480649AFF300800648016811B13B
:1001C000054A02B1904708BD0000000078360508D6
:1001D00074060020680600200000000090B484B07F
:1001E00000AF02460B46FA71BB714FF00003FB6093
:1001F000BB7903F003034FEA83034FF00F0202FAC7
:1002000003F3FB604FF46053C4F20103BA794FEA81
:100210009202D2B210464FF46052C4F20102B97990
:100220004FEA9101C9B201F1020152F82110FA68B6
:100230006FEA0202114000F1020243F822104FF46B
:100240006053C4F20103BA794FEA9202D2B2104667
:100250004FF46052C4F20102B9794FEA9101C9B278
:1002600001F1020152F82110FC79BA7902F003027F
:100270004FEA820204FA02F2114300F1020243F84B
:10028000221007F11007BD4690BC704780B485B0BE
:1002900000AF78604FF00003FB607B68DB684FF0D5
:1002A000FF325A607B68DB686FF080425A61FB68FE
:1002B00043F00043FB60FB6843F40063FB607B6832
:1002C000DB68FA689A6107F11407BD4680BC704785
:1002D00080B586B000AF78604FF00003FB744FF03C
:1002E00000037B614FF00003FB604FF003001DF043
:1002F0009BFA7B68DB681B69FB607B6903F1010388
:100300007B617A694FF45463C0F203039A4202D9C5
:100310004FF000032AE0FB6803F00043002BE4D019
:100320004FF000037B61FB6843F00103FB607B68D7
:10033000DB68FA681A617B68DB681B69FB607B69B4
:1003400003F101037B617A694FF45463C0F2030344
:100350009A4205D8FB6803F00103002BEBD100E0C3
:1003600000BF4FF003001DF05FFAFB7C184607F159
:100370001807BD4680BD00BF80B489B000AFF860EB
:10038000B960FA71BB804FF00003FB76FB68DB7845
:10039000002B2CD14FF000037B614FF00003FB6179
:1003A000BB8803F10303002B01DA03F103034FEAD7
:1003B000A3037B61FB79FA6803F132034FEA8303FD
:1003C000D3189B683B614FF00003FB610BE0BB68F7
:1003D0001A683B691A60FB6903F10103FB61BB68A2
:1003E00003F10403BB60FA697B699A42EFD3FB7E99
:1003F000184607F12407BD4680BC704780B489B019
:1004000000AFF860B9601346FB804FF00003FB615A
:10041000FB8803F10303002B01DA03F103034FEA26
:10042000A303BB61FB68D3F8D0307B614FF00003BE
:10043000FB610BE07B691A68BB681A60FB6903F11A
:100440000103FB61BB6803F10403BB60FA69BB698C
:100450009A42EFD3BB68184607F12407BD4680BC1B
:10046000704700BF80B487B000AF78600B46FB7068
:100470004FF000033B614FF00003FB737B684FF0CC
:100480000002DA707B684FF001029A707B684FF0CF
:1004900040029A80FB78012B17D14FF0A0433B61BB
:1004A0007B684FF00102DA727B684FF008021A7025
:1004B0007B684FF004025A707B684FF4A072DA80B8
:1004C0007B684FF002021A7217E0FB78002B14D100
:1004D0004FF00003C4F204033B617B684FF000025D
:1004E000DA727B684FF00C021A707B684FF00602DC
:1004F0005A707B684FF4A062DA803A697B68DA60F0
:100500003B6903F500631A467B681A614FF00003EC
:100510007B6123E07B694FEA43123B69D31803F503
:1005200010631A4679687B6903F104034FEA830379
:10053000CB189A607B694FEA43123B69D31803F5E5
:1005400030631A4679687B6903F114034FEA830329
:10055000CB185A607B6903F101037B617B685B7890
:100560001A467B699A42D5D83B6903F580631A46DF
:100570007B685A613B6903F588631A467B68C3F858
:10058000CC204FF000037B6113E07B694FEA4312FC
:100590003B69D31803F5A0631A4679687B6903F1B8
:1005A00022034FEA8303CB189A607B6903F10103AE
:1005B0007B617B681B781A467B699A42E5D84FF0CD
:1005C00000037B6113E07B694FEA03323B69D31878
:1005D00003F580531A4679687B6903F132034FEAC9
:1005E0008303CB189A607B6903F101037B617B680D
:1005F0001B781A467B699A42E5D83B6903F560632C
:100600001A467B68C3F80C21FB7B184607F11C07D0
:10061000BD4680BC704700BF80B586B000AF786033
:100620004FF00003FB754FF000033B614FF00003F8
:10063000FB604FF00003BB607B681B7A012B44D149
:100640007B68DB689B6BFB60FB686FF31043FB60B0
:100650007B685B7A002B03D0FB6843F48013FB605C
:100660007B68DB68FA689A634FF000033B617B6844
:10067000DB68DB683B613B696FF386133B613B6979
:100680006FF396533B613B696FF351433B613B69A9
:100690006FF3D3433B617B68DB683A69DA60786863
:1006A000FFF716FE7B68DB78012B40D1BB684FF06B
:1006B000050262F34403BB60BB6843F02003BB60E8
:1006C0007B68DB68BA689A6031E07B68DB68DB686E
:1006D0003B613B6943F040033B617B68DB683A69FF
:1006E000DA607868FFF7F4FD4FF00003FB60FB6809
:1006F00043F48033FB60FB6843F48023FB60FB68BA
:1007000043F40023FB60FB6843F40013FB607B6849
:100710005B7A002B03D0FB6843F48013FB607B689B
:10072000DB68FA689A634FF014001DF0A9F87B6843
:10073000DB78012B11D17B68DB689B68BB60BB68F1
:100740004FF0050262F34403BB60BB6843F0200333
:10075000BB607B68DB68BA689A60FB7D184607F16E
:100760001807BD4680BD00BF80B485B000AF78607B
:100770004FF00003FB734FF00003BB60BB6843F016
:100780000103BB607B68DB687A68D2689168BA68ED
:100790000A439A60FB7B184607F11407BD4680BCEC
:1007A000704700BF80B485B000AF78604FF00003A1
:1007B000FB734FF00003BB60BB6843F00103BB60F9
:1007C0007B68DB687A68D2689168BA686FEA02026F
:1007D0000A409A60FB7B184607F11407BD4680BCAF
:1007E000704700BF80B586B000AF786039604FF0C9
:1007F0000003FB744FF000037B614FF00003FB60CC
:10080000FB6843F02003FB603B68DBB203F01F038F
:10081000DAB2FB6862F38A13FB607B68DB68FA6814
:100820001A617B68DB681B69FB607B6903F101036C
:100830007B617A694FF45463C0F203039A4205D88E
:10084000FB6803F02003002BEBD100E000BF4FF06A
:1008500003001CF0E9FFFB7C184607F11807BD46B2
:1008600080BD00BF80B586B000AF78604FF0000358
:10087000FB744FF000037B614FF00003FB60FB68EB
:1008800043F01003FB607B68DB68FA681A617B68E1
:10089000DB681B69FB607B6903F101037B617A699B
:1008A0004FF45463C0F203039A4205D8FB6803F087
:1008B0001003002BEBD100E000BF4FF003001CF051
:1008C000B3FFFB7C184607F11807BD4680BD00BF8B
:1008D00080B584B000AF78600B46FB704FF000032A
:1008E000FB737B68DB68DB68BB60BB686FF35D73C1
:1008F000BB60BB686FF39E73BB60FB78012B04D1B8
:10090000BB6843F00053BB6006E0FB78002B03D1CB
:10091000BB6843F08043BB607B68DB68BA68DA6021
:100920004FF032001CF0ACFFFB7B184607F11007BC
:10093000BD4680BD80B483B000AF78607B68DB6863
:100940005B6903F00103184607F10C07BD4680BC44
:10095000704700BF80B582B000AF78607868FFF75D
:10096000E9FF0346012B0CBF00230123DBB218462D
:1009700007F10807BD4680BD80B485B000AF786040
:100980004FF00003FB607B68DB685B69FB607B68A2
:10099000DB689B69FA681340FB60FB68184607F147
:1009A0001407BD4680BC704780B58CB000AF78603E
:1009B0004FF0000387F82B304FF000037B624FF0BD
:1009C00000033B624FF00003FB614FF00003BB618B
:1009D0004FF000037B617B68D3F80C314FF00002CD
:1009E0001A607B681B691B683B623B6A6FF3CC2310
:1009F0003B627B681B693A6A1A6078684FF01001A5
:100A0000FFF7F0FE7868FFF72DFF7B681B694FF05A
:100A100000021A617B681B694FF000025A617B6813
:100A20001B694FF0FF329A617B681B694FF000022F
:100A3000DA614FF00003FB6243E07A68FB6A03F17E
:100A400004034FEA8303D3189B681B687B6297F803
:100A5000273023F07F03DBB2002B0BD04FF00003D5
:100A60007B627B6A43F080437B627B6A43F0006376
:100A70007B6202E04FF000037B627A68FB6A03F15D
:100A800004034FEA8303D3189B687A6A1A607A6872
:100A9000FB6A03F104034FEA8303D3189B684FF00A
:100AA00000021A617A68FB6A03F104034FEA8303C8
:100AB000D3189B684FF0FF029A60FB6A03F10103B1
:100AC000FB627B685B781A46FB6A9A42B5D84FF0A6
:100AD0000003FB6242E07A68FB6A03F114034FEA09
:100AE0008303D3185B681B68FB60FB7B23F07F03E9
:100AF000DBB2002B0BD04FF00003FB60FB6843F030
:100B00008043FB60FB6843F00063FB6002E04FF052
:100B10000003FB607A68FB6A03F114034FEA830366
:100B2000D3185B68FA681A607A68FB6A03F11403E9
:100B30004FEA8303D3185B684FF000021A617A68AA
:100B4000FB6A03F114034FEA8303D3185B684FF089
:100B5000FF029A60FB6A03F10103FB627B685B782A
:100B60001A46FB6A9A42B6D84FF000037B617B6954
:100B700043F480737B617B681B697A681269116931
:100B80007A696FEA020211407A690A431A617B6846
:100B9000DB78012B1ED14FF000033B613B6943F032
:100BA00001033B613B6943F002033B613B694FF04A
:100BB000400262F38A033B613B6943F480333B614B
:100BC0003B694FF0400262F359433B617B681B690C
:100BD0003A691A63786800F007F897F82B301846DE
:100BE00007F13007BD4680BD80B584B000AF7860A6
:100BF0004FF00003FB734FF00003BB607B68DB68C2
:100C00004FF000029A617B68DB686FF080425A61A6
:100C10007868FFF73BFB7B68DB78002B03D1BB6870
:100C200043F01003BB60BB6843F40063BB60BB6868
:100C300043F48053BB60BB6843F40053BB60BB68A4
:100C400043F48023BB60BB6843F40023BB60BB68F4
:100C500043F00803BB60BB6843F48013BB60BB6810
:100C600043F40013BB607B68DB687A68D2689169E3
:100C7000BA686FEA02021140BA680A439A61FB7BC4
:100C8000184607F11007BD4680BD00BF80B485B08F
:100C900000AF78604FF00003FB737B681B699B68B3
:100CA000BB60BB68C3F34103DBB2022B0BD0032B49
:100CB00005D0012B03D04FF00303FB7307E04FF087
:100CC0000203FB7303E04FF00103FB7300BFFB7BE8
:100CD000184607F11407BD4680BC704780B487B042
:100CE00000AF78604FF00003FB754FF00003BB606E
:100CF0007B681B699B683B617B689B691B68FB6029
:100D00003B69C3F34103DBB2022B04D0FB686FF3F2
:100D10000A03FB6006E0FB684FF0030262F30A037C
:100D2000FB6000BF7B689B69FA681A60BB6843F48C
:100D30008073BB607B681B697A6812695168BA6806
:100D40006FEA02021140BA680A435A60FB7D1846F6
:100D500007F11C07BD4680BC704700BF80B487B058
:100D600000AF786039604FF00003FB744FF0000370
:100D7000FB604FF00003BB603B685B78012B12D136
:100D80003B681B787A6803F104034FEA8303D318A6
:100D90009B687B613B681B784FF0010202FA03F30A
:100DA0009BB23B8114E03B681B787A6803F1140323
:100DB0004FEA8303D3185B687B613B681B784FF075
:100DC000010202FA03F39AB2BB6862F31F43BB60ED
:100DD0007B691B68FB607B7B23F07F03DBB2002B0E
:100DE00029D13B689B689BB24FEA43534FEA535368
:100DF0009AB2FB6862F30A03FB603B68DB7803F09E
:100E00000303DAB2FB6862F39343FB603B68DB8861
:100E1000DBB203F00F03DAB2FB6862F39953FB60B5
:100E2000FB6843F08053FB60FB6843F40043FB60C6
:100E3000FA687B691A607B681B697A681269D169F4
:100E4000BA680A43DA61FB7C184607F11C07BD4605
:100E500080BC704780B487B000AF786039604FF0D5
:100E60000003FB744FF00003FB604FF00003BB6016
:100E70003B685B78012B12D13B681B787A6803F1E1
:100E800004034FEA8303D3189B687B613B681B789C
:100E90004FF0010202FA03F39BB23B8114E03B687E
:100EA0001B787A6803F114034FEA8303D3185B6855
:100EB0007B613B681B784FF0010202FA03F39AB2A0
:100EC000BB6862F31F43BB60FB686FF3CF33FB600B
:100ED000FA687B691A607B681B697A681269D16954
:100EE000BA686FEA02020A40DA61FB7C184607F131
:100EF0001C07BD4680BC704780B588B000AF7860E5
:100F000039604FF00003FB774FF00003BB614FF0F7
:100F100000037B614FF000033B613B685B78012B72
:100F200040F0BD803B681B787A6803F104034FEA08
:100F30008303D3189B681B687B613B681B787A68C6
:100F400003F104034FEA8303D3189B681B693B61D9
:100F50003B685B69002B0AD13B696FF312033B616D
:100F60003B694FF0010262F3DC433B6128E03B68E0
:100F70005B6923F07F4222F478023B6962F312033B
:100F80003B613B685A693B689B68D31803F1FF32A9
:100F90003B689B68B2FBF3F39BB24FEA83534FEA83
:100FA00093539AB23B6962F3DC433B613B68DB7865
:100FB000012B05D13B694FF0010262F35E733B6187
:100FC0003B681B787A6803F104034FEA8303D31864
:100FD0009B683A691A617B68DB78012B0CD13B680E
:100FE0001B787A6803F104034FEA8303D3189B68E4
:100FF0003A6812695A6116E03B68DB78012B12D01F
:101000003B685B69002B0ED03B681B784FF00102F8
:1010100002FA03F3BB617B681B697A681269516B42
:10102000BA690A435A633B68DB78012B14D17B68A9
:101030001B699B68FB60FB68C3F30D239BB203F045
:101040000103002B04D17B6943F000537B6103E073
:101050007B6943F080537B617B6943F080637B61F4
:101060007B6943F000437B613B681B787A6803F13E
:1010700004034FEA8303D3189B687A691A603B68BC
:10108000DB78012B40F09A803B68D9683B681A787E
:101090003B685B699BB27868FFF76EF98EE03B684E
:1010A0001B787A6803F114034FEA8303D3185B6853
:1010B0001B687B613B681B787A6803F114034FEA75
:1010C0008303D3185B681B693B613B685B69002B3A
:1010D00010D13B689B6823F07F4222F478023B6981
:1010E00062F312033B613B694FF0010262F3DC43A0
:1010F0003B6124E03B685A693B689B68D31803F165
:10110000FF323B689B68B2FBF3F39BB24FEA835319
:101110004FEA93539AB23B6962F3DC433B613B690C
:10112000C3F3C9439BB23A68926802FB03F323F00E
:101130007F4222F478023B6962F312033B613B6811
:101140001B787A6803F114034FEA8303D3185B68B2
:101150003A691A617B68DB78012B0BD13B681B78FD
:101160007A6803F114034FEA8303D3185B683A6883
:1011700012695A613B68DB78012B0CD13B685B79C3
:10118000002B04D07B6943F000537B6103E07B6953
:1011900043F080537B617B6943F080637B617B69B3
:1011A00043F000437B613B681B787A6803F11403CA
:1011B0004FEA8303D3185B687A691A60FB7F18468D
:1011C00007F12007BD4680BD80B489B000AF7860CC
:1011D00039604FF00003FB774FF00003BB614FF025
:1011E00000033B614FF00003BB603B685B78012B61
:1011F00075D17B689B697B617B691B683B617B69FF
:101200001B69BB603B685B69002B0AD13B7A6FF3BB
:1012100006033B72BB7A4FF0010262F3C403BB7258
:1012200024E03B685A693B689B689A420ED93B6848
:101230009A683B685A613B689B68DBB203F07F03A6
:10124000DAB23B7A62F306033B7209E03B685B6902
:10125000DBB203F07F03DAB23B7A62F306033B7240
:10126000BB7A4FF0010262F3C403BB72BA687B69B8
:101270001A617B68DB78012B0BD13B681B787A689D
:1012800003F104034FEA8303D3189B683A68126999
:101290005A613B6943F080633B613B6943F0004323
:1012A0003B613A697B691A607B68DB78002B40F010
:1012B00083803B685B69002B7ED03B681B784FF0D6
:1012C000010202FA03F3BA691343BB617B681B692D
:1012D0007A681269516BBA690A435A636CE03B68D9
:1012E0001B787A6803F114034FEA8303D3185B6811
:1012F0001B683B613B681B787A6803F114034FEA73
:101300008303D3185B681B69BB603B685B69002B78
:1013100010D13B689B68DBB203F07F03DAB23B7A03
:1013200062F306033B72BB7A4FF0010262F3C4031F
:10133000BB7213E03B689A683B685A613B689B68E4
:10134000DBB203F07F03DAB23B7A62F306033B724F
:10135000BB7A4FF0010262F3C403BB723B681B7897
:101360007A6803F114034FEA8303D3185B68BA6801
:101370001A617B68DB78012B0BD13B681B787A689C
:1013800003F114034FEA8303D3185B683A681269C8
:101390005A613B6943F080633B613B6943F0004322
:1013A0003B613B681B787A6803F114034FEA8303BF
:1013B000D3185B683A691A60FB7F184607F1240767
:1013C000BD4680BC704700BF80B487B000AF786076
:1013D00039604FF00003FB754FF00003FB603B6882
:1013E0005B78012B1ED13B681B787A6803F10403FC
:1013F0004FEA8303D3189B683B613B691B68FB6022
:10140000FB7B23F07F03DBB2002B03D0FB6843F0B0
:101410008043FB60FB6843F40013FB60FA683B69A0
:101420001A6013E03B681B787A6803F114034FEAF3
:101430008303D3185B683B613B691B68FB60FB68F7
:1014400043F40013FB60FA683B691A60FB7D1846A1
:1014500007F11C07BD4680BC704700BF80B487B051
:1014600000AF786039604FF00003FB744FF0000369
:10147000FB603B685B78012B0AD13B681B787A687C
:1014800003F104034FEA8303D3189B687B6109E0EF
:101490003B681B787A6803F114034FEA8303D3187F
:1014A0005B687B617B691B68FB60FB686FF355536E
:1014B000FB603B68DB78032B03D03B68DB78022BB7
:1014C00003D1FB6843F08053FB60FA687B691A60C4
:1014D000FB7C184607F11C07BD4680BC704700BF67
:1014E00080B485B000AF78607B681B699B69FB6046
:1014F0007B681B69DB69FA681340FB60FB684FEA95
:101500001343184607F11407BD4680BC704700BF5F
:1015100080B485B000AF78600B46FB70FB787A68CA
:1015200003F114034FEA8303D3185B689B68FB60E5
:101530007B681B695B69FA681340FB60FB681846AF
:1015400007F11407BD4680BC704700BF80B485B06A
:1015500000AF78607B681B699B69FB607B681B69D7
:10156000DB69FA681340FB60FB684FEA03434FEA0C
:101570001343184607F11407BD4680BC704700BFEF
:1015800080B487B000AF78604FF000033B61FB7C14
:1015900043F0C003FB74BB7C4FF0010262F3C40351
:1015A000BB743B7C4FF0180262F306033B747B680C
:1015B0005B6D3A691A617B68DB78012B17D14FF0BC
:1015C0000003FB607B685B6D7A6802F2CC525A6163
:1015D0007B685B6D1B68FB60FB6843F00043FB604E
:1015E0004FF08023FB607B685B6DFA681A6007F13F
:1015F0001C07BD4680BC704780B586B000AF4FF079
:1016000002033B724FF000037B724FF00103FB7249
:101610004FF040037B6007F104034FF40060C4F215
:101620000200194606F010F94FF080037B6007F1C5
:1016300004034FF40060C4F20200194606F004F9F6
:101640004FF40060C4F202004FF006014FF00302B5
:1016500006F0D6F94FF40060C4F202004FF0070123
:101660004FF0030206F0CCF94FF002004FF00101F9
:1016700002F05AFB41F207033B614FF00003BB81CC
:101680004FF00003BB824FF00003FB814FF48060FA
:10169000C4F201004FF003014FF002024FF00203C9
:1016A0001CF0E6F907F10C034FF48060C4F201006E
:1016B00019461CF0F5F84FF48060C4F201004FF0B9
:1016C00001011CF073F907F11807BD4680BD00BF8A
:1016D00080B586B000AF4FF002033B724FF00003BD
:1016E0007B724FF00103FB724FF010037B6007F138
:1016F00004034FF48060C4F20200194606F0A4F817
:101700004FF020037B6007F104034FF48060C4F2C4
:101710000200194606F098F84FF48060C4F2020007
:101720004FF004014FF0020206F06AF94FF48060B6
:10173000C4F202004FF005014FF0020206F060F91A
:101740004FF002004FF0010102F0C4FA41F207032A
:101750003B614FF00003BB814FF00003BB824FF0B1
:101760000003FB814FF48060C4F200004FF00301DE
:101770004FF002024FF002031CF07AF907F10C035C
:101780004FF48060C4F2000019461CF089F84FF451
:101790008060C4F200004FF001011CF007F907F16E
:1017A0001807BD4680BD00BF80B586B000AF4FF0C2
:1017B00002033B724FF000037B724FF00103FB7298
:1017C0004FF480537B6007F104034FF44060C4F290
:1017D0000200194606F038F84FF400537B6007F119
:1017E00004034FF44060C4F20200194606F02CF8DE
:1017F0004FF44060C4F202004FF00C014FF00202BF
:1018000006F0FEF84FF44060C4F202004FF00D0104
:101810004FF0020206F0F4F84FF004004FF001011F
:1018200002F058FA41F207033B614FF00003BB811D
:101830004FF00003BB824FF00003FB814FF40060C8
:10184000C4F200004FF003014FF002024FF0020318
:101850001CF00EF907F10C034FF40060C4F2000015
:1018600019461CF01DF84FF40060C4F200004FF060
:1018700001011CF09BF807F11807BD4680BD00BFB1
:1018800080B586B000AF4FF002033B724FF000030B
:101890007B724FF00103FB724FF001037B6007F195
:1018A00004034FF00000C4F20200194605F0CCFF1B
:1018B0004FF002037B6007F104034FF00000C4F215
:1018C0000200194605F0C0FF4FF00000C4F202000C
:1018D0004FF000014FF0020206F092F84FF00000C6
:1018E000C4F202004FF001014FF0020206F088F846
:1018F0004FF008004FF0010102F0ECF941F207034C
:101900003B614FF00003BB814FF00003BB824FF0FF
:101910000003FB814FF44060C4F200004FF003016C
:101920004FF002024FF002031CF0A2F807F10C0383
:101930004FF44060C4F2000019461BF0B1FF4FF4B1
:101940004060C4F200004FF001011CF02FF807F1D5
:101950001807BD4680BD00BF80B400AFBD4680BC47
:10196000704700BF80B483B000AF0346FB71FB79C2
:10197000002B01D0012B00E000BF07F10C07BD4692
:1019800080BC704780B400AFBD4680BC704700BFCC
:1019900080B400AFBD4680BC704700BF80B400AFCC
:1019A000BD4680BC704700BF80B400AFBD4680BC60
:1019B000704700BF80B400AFBD4680BC704700BF19
:1019C00080B485B000AF78604FF41053C0F2F403D8
:1019D000FB600EE0FB68002B14BF00230123DBB289
:1019E000FA6802F1FF32FA60002B02D04FF00103D7
:1019F0000DE04FF4A843C4F200039B8A9BB21A4641
:101A00007B681A407B689A42E4D14FF00003184685
:101A100007F11407BD4680BC704700BF80B483B097
:101A200000AF4FF41053C0F2F4037B600EE07B680C
:101A3000002B14BF00230123DBB27A6802F1FF32CE
:101A40007A60002B02D04FF0010309E04FF4A84365
:101A5000C4F200031B8B9BB203F00203002BE6D100
:101A6000184607F10C07BD4680BC704780B586B0AC
:101A700000AF4FF0C0033B614FF002033B754FF0E6
:101A800001037B754FF00103BB754FF00103FB753C
:101A900007F110034FF48060C4F20200194605F00C
:101AA000D3FE4FF48060C4F202004FF006014FF005
:101AB000040205F0A5FF4FF48060C4F202004FF06D
:101AC00007014FF0040205F09BFF4FF400104FF0A8
:101AD000010102F0FFF84FF4A840C4F2000019F031
:101AE00093FA4FF00003BB804BF6FF73FB804FF07F
:101AF00033033B814FF480637B814FF48043BB8190
:101B000048F2A063C0F201033B604FF4A840C4F266
:101B100000004FF0010119F091FB3B464FF4A84043
:101B2000C4F20000194619F0B3FA07F11807BD46D0
:101B300080BD00BF80B582B000AF13460246FA7187
:101B40000A46BA717B7140F21C03C2F200034FF4E3
:101B50005C42C0F205021A6015E040F21C03C2F2BA
:101B600000031B68002B14BF00220122D2B203F134
:101B7000FF3140F21C03C2F200031960002A02D0B8
:101B80004FF001030FE14FF4A840C4F200004FF4FE
:101B9000003119F047FC0346002BDED14FF4A8407A
:101BA000C4F200004FF0010119F068FB40F21C0381
:101BB000C2F200034FF4A0621A6015E040F21C0369
:101BC000C2F200031B68002B14BF00220122D2B214
:101BD00003F1FF3140F21C03C2F200031960002A36
:101BE00002D04FF00203DEE04FF4A840C4F2000040
:101BF0004FF00101C0F2030119F0DCFB0346002B9A
:101C0000DCD0FB794FF4A840C4F2000019464FF035
:101C1000000219F073FB40F21C03C2F200034FF400
:101C2000A0621A6015E040F21C03C2F200031B68B8
:101C3000002B14BF00220122D2B203F1FF3140F287
:101C40001C03C2F200031960002A02D04FF0030304
:101C5000A9E04FF4A840C4F200004FF08201C0F2A6
:101C6000070119F0A7FB0346002BDCD0BB794FF42A
:101C7000A840C4F20000194619F07EFB40F21C0394
:101C8000C2F200034FF4A0621A6015E040F21C0398
:101C9000C2F200031B68002B14BF00220122D2B243
:101CA00003F1FF3140F21C03C2F200031960002A65
:101CB00002D04FF0040376E04FF4A840C4F20000D5
:101CC0004FF08001C0F2070119F074FB0346002BAE
:101CD000DCD07B794FF4A840C4F20000194619F01B
:101CE0004BFB40F21C03C2F200034FF45C42C0F213
:101CF00005021A6015E040F21C03C2F200031B68E3
:101D0000002B14BF00220122D2B203F1FF3140F2B6
:101D10001C03C2F200031960002A02D04FF0050331
:101D200041E04FF4A840C4F200004FF00401C1F2BA
:101D3000000119F077FB0346002BDCD04FF4A840DC
:101D4000C4F200004FF0010119F0B8FA40F21C0390
:101D5000C2F200034FF4A0621A6015E040F21C03C7
:101D6000C2F200031B68002B14BF00220122D2B272
:101D700003F1FF3140F21C03C2F200031960002A94
:101D800002D04FF006030EE04FF4A840C4F200006A
:101D90004FF01001C1F2000119F044FB0346002B83
:101DA000DCD14FF00003184607F10807BD4680BD9F
:101DB00080B586B000AFBA607B600346FB730B460C
:101DC000BB7340F21C03C2F200034FF45C42C0F24A
:101DD00005021A6015E040F21C03C2F200031B6802
:101DE000002B14BF00220122D2B203F1FF3140F2D6
:101DF0001C03C2F200031960002A02D04FF0010355
:101E000020E14FF4A840C4F200004FF4003119F073
:101E100009FB0346002BDED14FF4A840C4F20000BA
:101E20004FF0010119F02AFA40F21C03C2F200033C
:101E30004FF4A0621A6015E040F21C03C2F20003E6
:101E40001B68002B14BF00220122D2B203F1FF3124
:101E500040F21C03C2F200031960002A02D04FF0C6
:101E60000203EFE04FF4A840C4F200004FF001017C
:101E7000C0F2030119F09EFA0346002BDCD0FB7B75
:101E80004FF4A840C4F2000019464FF0000219F0C8
:101E900035FA40F21C03C2F200034FF4A0621A604C
:101EA00015E040F21C03C2F200031B68002B14BFB4
:101EB00000220122D2B203F1FF3140F21C03C2F230
:101EC00000031960002A02D04FF00303BAE04FF478
:101ED000A840C4F200004FF08201C0F2070119F0DF
:101EE00069FA0346002BDCD0BB7B4FF4A840C4F258
:101EF0000000194619F040FA40F21C03C2F2000338
:101F00004FF4A0621A6015E040F21C03C2F2000315
:101F10001B68002B14BF00220122D2B203F1FF3153
:101F200040F21C03C2F200031960002A02D04FF0F5
:101F3000040387E04FF4A840C4F200004FF0800192
:101F4000C0F2070119F036FA0346002BDCD04FF03F
:101F500000037B613DE0BB681B78BA6802F10102B7
:101F6000BA604FF4A840C4F20000194619F004FA10
:101F700040F21C03C2F200034FF45C42C0F20502BF
:101F80001A6015E040F21C03C2F200031B68002B2C
:101F900014BF00220122D2B203F1FF3140F21C0330
:101FA000C2F200031960002A02D04FF0050349E095
:101FB0004FF4A840C4F200004FF00401C1F2000148
:101FC00019F030FA0346002BDCD07B6903F10103E2
:101FD0007B617A697B689A42BDD34FF4A840C4F212
:101FE00000004FF0010119F069F940F21C03C2F240
:101FF00000034FF4A0621A6015E040F21C03C2F225
:1020000000031B68002B14BF00220122D2B203F18F
:10201000FF3140F21C03C2F200031960002A02D013
:102020004FF006030EE04FF4A840C4F200004FF05A
:102030001001C1F2000119F0F5F90346002BDCD1C3
:102040004FF00003184607F11807BD4680BD00BFDA
:1020500080B582B000AF0B463A600246FA71BB71A0
:1020600040F21C03C2F200034FF45C42C0F20502CE
:102070001A6015E040F21C03C2F200031B68002B3B
:1020800014BF00220122D2B203F1FF3140F21C033F
:10209000C2F200031960002A02D04FF001039BE155
:1020A0004FF4A840C4F200004FF4003119F0BAF91F
:1020B0000346002BDED14FF4A840C4F200004FF0DD
:1020C000010119F0DBF840F21C03C2F200034FF4E7
:1020D000A0621A6015E040F21C03C2F200031B6804
:1020E000002B14BF00220122D2B203F1FF3140F2D3
:1020F0001C03C2F200031960002A02D04FF0020351
:102100006AE14FF4A840C4F200004FF00101C0F2B0
:10211000030119F04FF90346002BDCD0FB794FF493
:10212000A840C4F2000019464FF0000219F0E6F88A
:1021300040F21C03C2F200034FF4A0621A6015E0E3
:1021400040F21C03C2F200031B68002B14BF0022E4
:102150000122D2B203F1FF3140F21C03C2F20003AC
:102160001960002A02D04FF0030335E14FF4A84074
:10217000C4F200004FF08201C0F2070119F01AF911
:102180000346002BDCD0BB794FF4A840C4F200001A
:10219000194619F0F1F840F21C03C2F200034FF4A3
:1021A000A0621A6015E040F21C03C2F200031B6833
:1021B000002B14BF00220122D2B203F1FF3140F202
:1021C0001C03C2F200031960002A02D04FF004037E
:1021D00002E14FF4A840C4F200004FF00401C1F244
:1021E000000119F01FF90346002BDCD04FF4A84082
:1021F000C4F200004FF0010119F040F840F21C0356
:10220000C2F200034FF4A0621A6015E040F21C0312
:10221000C2F200031B68002B14BF00220122D2B2BD
:1022200003F1FF3140F21C03C2F200031960002ADF
:1022300002D04FF00603CFE04FF4A840C4F20000F4
:102240004FF00101C0F2030119F0B4F80346002B6E
:10225000DCD0FB794FF4A840C4F2000019464FF0DF
:10226000010219F04BF840F21C03C2F200034FF4D4
:10227000A0621A6015E040F21C03C2F200031B6862
:10228000002B14BF00220122D2B203F1FF3140F231
:102290001C03C2F200031960002A02D04FF00703AA
:1022A0009AE04FF4A840C4F200004FF00201C1F2DE
:1022B000000119F0B7F80346002BDCD04FF4A8401A
:1022C000C4F200004FF0000119F036F84FF4A843B3
:1022D000C4F200031B8B4FF4A840C4F200004FF07F
:1022E000010118F0EBFF40F21C03C2F200034FF4AF
:1022F000A0621A6015E040F21C03C2F200031B68E2
:10230000002B14BF00220122D2B203F1FF3140F2B0
:102310001C03C2F200031960002A02D04FF0080328
:102320005AE04FF4A840C4F200004FF04001C1F25F
:10233000000119F077F80346002BDCD04FF4A840D9
:10234000C4F2000019F028F803461A463B681A70D8
:1023500040F21C03C2F200034FF4A0621A601DE0B9
:1023600040F21C03C2F200031B68002B14BF0022C2
:102370000122D2B203F1FF3140F21C03C2F200038A
:102380001960002A0AD04FF4A840C4F200004FF0B0
:10239000010118F0D1FF4FF009031DE04FF4A843ED
:1023A000C4F200031B889BB203F40073002BD7D147
:1023B0004FF4A840C4F200004FF0010118F0BCFF38
:1023C0004FF4A840C4F200004FF48061C1F2000154
:1023D00019F064F84FF00003184607F10807BD46EE
:1023E00080BD00BF80B584B000AFBA607B6003469B
:1023F000FB730B46BB7340F21C03C2F200034FF4A5
:102400005C42C0F205021A6015E040F21C03C2F201
:1024100000031B68002B14BF00220122D2B203F17B
:10242000FF3140F21C03C2F200031960002A02D0FF
:102430004FF0010334E24FF4A840C4F200004FF41F
:10244000003118F0EFFF0346002BDED14FF4A84017
:10245000C4F200004FF0010118F010FF40F21C031D
:10246000C2F200034FF4A0621A6015E040F21C03B0
:10247000C2F200031B68002B14BF00220122D2B25B
:1024800003F1FF3140F21C03C2F200031960002A7D
:1024900002D04FF0020303E24FF4A840C4F2000060
:1024A0004FF00101C0F2030118F084FF0346002B36
:1024B000DCD0FB7B4FF4A840C4F2000019464FF07B
:1024C000000218F01BFF40F21C03C2F200034FF49D
:1024D000A0621A6015E040F21C03C2F200031B6800
:1024E000002B14BF00220122D2B203F1FF3140F2CF
:1024F0001C03C2F200031960002A02D04FF003034C
:10250000CEE14FF4A840C4F200004FF08201C0F2C7
:10251000070118F04FFF0346002BDCD0BB7B4FF4C4
:10252000A840C4F20000194618F026FF40F21C0330
:10253000C2F200034FF4A0621A6015E040F21C03DF
:10254000C2F200031B68002B14BF00220122D2B28A
:1025500003F1FF3140F21C03C2F200031960002AAC
:1025600002D04FF004039BE14FF4A840C4F20000F6
:102570004FF00401C1F2000118F054FF0346002B94
:10258000DCD04FF4A840C4F200004FF0010118F075
:1025900075FE40F21C03C2F200034FF4A0621A6001
:1025A00015E040F21C03C2F200031B68002B14BFAD
:1025B00000220122D2B203F1FF3140F21C03C2F229
:1025C00000031960002A02D04FF0060368E14FF4BF
:1025D000A840C4F200004FF00101C0F2030118F05E
:1025E000E9FE0346002BDCD0FB7B4FF4A840C4F28D
:1025F000000019464FF0010218F080FE40F21C0363
:10260000C2F200034FF4A0621A6015E040F21C030E
:10261000C2F200031B68002B14BF00220122D2B2B9
:1026200003F1FF3140F21C03C2F200031960002ADB
:1026300002D04FF0070333E14FF4A840C4F200008A
:102640004FF00201C1F2000118F0ECFE0346002B2E
:10265000DCD07B68012B02D0022B3CD0A3E04FF4EE
:10266000A843C4F200034FF4A842C4F20002128847
:1026700092B222F4806292B21A804FF4A843C4F25C
:1026800000031B8B4FF4A843C4F200034FF4A8428D
:10269000C4F20002128892B242F4007292B21A801E
:1026A0004FF4A840C4F2000018F076FE03461A4624
:1026B000BB681A70FFF7B2F94FF4A843C4F20003E5
:1026C0004FF4A842C4F20002128892B242F480622F
:1026D00092B21A80E2E04FF4A843C4F200034FF430
:1026E000A842C4F20002128892B222F4806292B22E
:1026F0001A804FF4A843C4F200034FF4A842C4F276
:102700000002128892B242F4006292B21A804FF430
:10271000A843C4F200031B8B4FF00400FFF750F9ED
:102720004FF4A843C4F200034FF4A842C4F20002DD
:10273000128892B242F4007292B21A8011E04FF401
:10274000A840C4F2000018F027FE03461A46BB68F2
:102750001A70BB6803F10103BB607B6803F1FF33B0
:102760007B607B68002BEAD1FFF758F94FF4A84350
:10277000C4F200034FF4A842C4F20002128892B2DD
:1027800042F4806292B21A804FF4A843C4F200036C
:102790004FF4A842C4F20002128892B222F40062FE
:1027A00092B21A807AE04FF4A843C4F200031B8B64
:1027B00011E04FF4A840C4F2000018F0EDFD03460C
:1027C0001A46BB681A70BB6803F10103BB604FF087
:1027D0000400FFF7F5F87B68032B94BF0023012367
:1027E000DBB27A6802F1FF327A60002BE1D14FF45C
:1027F000A843C4F200034FF4A842C4F200021288B6
:1028000092B222F4806292B21A804FF4A840C4F2CD
:10281000000018F0C1FD03461A46BB681A70BB6879
:1028200003F10103BB604FF00400FFF7C9F84FF458
:10283000A843C4F200034FF4A842C4F20002128875
:1028400092B242F4007292B21A804FF4A840C4F2DD
:10285000000018F0A1FD03461A46BB681A70BB6859
:1028600003F10103BB604FF4A840C4F2000018F06C
:1028700093FD03461A46BB681A70FFF7CFF84FF472
:10288000A843C4F200034FF4A842C4F20002128825
:1028900092B242F4806292B21A8000BF4FF00003FD
:1028A000184607F11007BD4680BD00BF80B500AFD8
:1028B00004F0E2FD80BD00BF80B400AFBD4680BC27
:1028C000704700BF80B485B000AF786039604FF0CA
:1028D0000003FB604FF00003BB604FF4E843C4F219
:1028E00000031B68FB607B6840F6FE7202FA03F38C
:1028F0006FEA0303FA681340FB603B681A683B68A1
:102900005B681A433B689B681A433B68DB68134368
:10291000BB607B68BA6802FA03F3FA681343FB6092
:102920004FF4E843C4F20003FA681A6007F1140791
:10293000BD4680BC704700BF80B483B000AF7860F4
:102940000B46FB70FB78002B10D04FF4E843C4F229
:1029500000034FF4E842C4F2000211687A684FF0B5
:10296000010000FA02F20A431A6011E04FF4E84352
:10297000C4F200034FF4E842C4F2000211687A681E
:102980004FF0010000FA02F26FEA02020A401A60F8
:1029900007F10C07BD4680BC704700BF80B485B00E
:1029A00000AF78600B467B804FF00003FB604FF474
:1029B000E843C4F20003FB60FA687B68D31803F1B4
:1029C0000803FB60FB687A881A6007F11407BD46AC
:1029D00080BC704780B485B000AF78600B467B80C8
:1029E0004FF00003FB604FF4E843C4F20003FB60C8
:1029F000FA687B68D31803F11403FB60FB687A88DC
:102A00001A6007F11407BD4680BC704780B582B0DC
:102A100000AF43F27863C0F605037B6040F2000329
:102A2000C2F200033B600BE07B681A683B681A60E7
:102A30003B6803F104033B607B6803F104037B60A4
:102A40003A6840F26C63C2F200039A42ECD30C483D
:102A50000C494FF000028842B8BF40F8042BFFF643
:102A6000FAAFDFF82400016841F47001016005F05D
:102A70003DFB00F075FF07F10807BD4680BD000073
:102A80007006002060ED002088ED00E080B400AF0B
:102A9000FEE700BF80B584B000AFF8607A603B60AD
:102AA0000B46FB72F8681AF039FEFB683A68C3F807
:102AB000E425FB68BA69C3F8E825FB687A68C3F8BF
:102AC000EC25FB7AF868194618F084FEF8681AF0CD
:102AD0008DFE07F11007BD4680BD00BF80B582B0F6
:102AE00000AF7860786818F00FFF78681AF050FE31
:102AF0004FF00003184607F10807BD4680BD00BF30
:102B000080B584B000AF786007F108037868194693
:102B10000BF092FA3B7A03F01F03012B0AD0022B31
:102B20000FD0002B14D107F10803786819460AF07A
:102B30003BFE16E007F10803786819460AF086FEA6
:102B40000FE007F10803786819460AF0B5FE08E0BF
:102B50003B7A23F07F03DBB27868194619F00AF854
:102B600000BF4FF00003184607F11007BD4680BDB7
:102B700080B584B000AF78600B46FB70FB78002B0B
:102B800045D17B6803F55D73FB607B6893F8113179
:102B9000032B4FD1FB68DA69FB689B689A4221D905
:102BA000FB68DA69FB689B68D21AFB68DA617B68AC
:102BB000DB78012B06D1FB68DA68FB689B68D218CA
:102BC000FB68DA60FB68DA68FB689968FB68DB69B8
:102BD000994238BF0B469BB2786811461A461AF0E4
:102BE00049FD27E07B68D3F8E4351B69002B0AD048
:102BF0007B6893F81231032B05D17B68D3F8E43559
:102C00001B697868984778681AF04CFD12E07B6879
:102C1000D3F8E4359B69002B0CD07B6893F8123114
:102C2000032B07D17B68D3F8E4359B69FA78786881
:102C3000114698474FF00003184607F11007BD46AC
:102C400080BD00BF80B584B000AF78600B46FB70DC
:102C5000FB78002B70D17B6803F58E73FB607B687B
:102C600093F81131022B59D1FB68DA69FB689B6834
:102C70009A421CD9FB68DA69FB689B68D21AFB6828
:102C8000DA617B68DB78012B06D1FB68DA68FB68C8
:102C90009B68D218FB68DA60FB68DA68FB68DB695E
:102CA0009BB2786811461A461AF0A8FC36E0FB6819
:102CB0001B6AFA689268B3FBF2F102FB01F29B1AFD
:102CC000002B17D1FB681A6AFB689B689A4211D3E4
:102CD000FB681A6AFB685B6A9A420BD278684FF00D
:102CE00000014FF000021AF089FCFB684FF000026F
:102CF0005A6213E07B68D3F8E435DB68002B0AD016
:102D00007B6893F81231032B05D17B68D3F8E43547
:102D1000DB687868984778681AF0E2FC7B6893F87B
:102D20001631012B1BD1786800F020F87B684FF03A
:102D3000000283F8162112E07B68D3F8E4355B6962
:102D4000002B0CD07B6893F81231032B07D17B68E2
:102D5000D3F8E4355B69FA787868114698474FF004
:102D60000003184607F11007BD4680BD80B483B04C
:102D700000AF78607B681A6948F27C03C2F20003F6
:102D80001B6853604FF00003184607F10C07BD465F
:102D900080BC704780B582B000AF786078684FF033
:102DA00000014FF040024FF0000318F0B9FD7868C1
:102DB0004FF080014FF040024FF0000318F0B0FDDB
:102DC0007B684FF0010283F812217B68D3F8E83565
:102DD0005B687A689278104698474FF0000318466F
:102DE00007F10807BD4680BD80B582B000AF7860AE
:102DF0007B68D3F8E8351B6998477B6893F8132103
:102E00007B6883F812217B684FF0030283F812215C
:102E10004FF00003184607F10807BD4680BD00BF0C
:102E200080B582B000AF78607B6893F812217B6830
:102E300083F813217B684FF0040283F812217B682A
:102E4000D3F8E835DB6898474FF00003184607F1E0
:102E50000807BD4680BD00BF80B582B000AF786076
:102E60007B68D3F8E435DB69002B05D07B68D3F8A9
:102E7000E435DB69786898474FF00003184607F19E
:102E80000807BD4680BD00BF80B582B000AF786046
:102E90000B46FB707B68D3F8E4351B68FA787868DA
:102EA000114698477B68D3F8E8359B6898474FF000
:102EB0000003184607F10807BD4680BD80B582B003
:102EC00000AF78600B46FB707B68D3F8E4355B6835
:102ED000FA787868114698474FF00003184607F1D2
:102EE0000807BD4680BD00BF80B582B000AF7860E6
:102EF0007B68D3F8E4351B6A786898474FF0000385
:102F0000184607F10807BD4680BD00BF80B582B0F6
:102F100000AF78607B68D3F8E4355B6A78689847DF
:102F20004FF00003184607F10807BD4680BD00BFFB
:102F300080B400AFBFF34F8F4FF46D42CEF200026A
:102F40004FF46D43CEF20003DB6803F4E0614FF011
:102F50000403C0F2FA530B43D360BFF34F8FFEE775
:102F600080B582B000AF7860FFF7E2FF07F1080795
:102F7000BD4680BD80B500AF47F69040C0F6040066
:102F800004F0FEF94FF00100FFF7EAFF80BD00BF3B
:102F900080B500AF47F6A840C0F6040004F0F0F991
:102FA0004FF00200FFF7DCFF80BD00BF80B500AF2F
:102FB00047F6C440C0F6040004F0E2F94FF0030005
:102FC000FFF7CEFF80BD00BF80B500AF47F6E04001
:102FD000C0F6040004F0D4F94FF00400FFF7C0FF7E
:102FE00080BD00BF80B500AF47F6FC40C0F60400CE
:102FF00004F0C6F94FF00500FFF7B2FF80BD00BF37
:1030000080B500AF47F61850C0F6040004F0B8F9D8
:103010004FF00600FFF7A4FF80BD00BF80B500AFF2
:1030200047F63050C0F6040004F0AAF94FF007004C
:10303000FFF796FF80BD00BF80B500AF1AF07CFEA1
:1030400080BD00BF80B500AF4FF0010018F0DAFA84
:103050000346002B44D048F28003C2F2000393F8E9
:103060007B30DBB2022B0DD14FF48050C4F2020052
:103070004FF0010104F08AFC0346002B30D119F017
:1030800025FC2DE048F28003C2F2000393F87B3068
:10309000DBB2002B11D048F28003C2F2000393F898
:1030A0007B30DBB2012B08D048F28003C2F2000370
:1030B00093F87B30DBB2032B12D14FF48050C4F273
:1030C00002004FF0010104F061FC0346002B07D120
:1030D00048F28003C2F200034FF0010283F87A2025
:1030E0004FF0010018F0BAFA80BD00BF80B500AF04
:1030F0004FF0020018F086FA0346002B15D048F274
:103100008003C2F2000393F87B30DBB2022B0CD1B8
:103110004FF48050C4F202004FF0020104F036FC7C
:103120000346002B01D119F027FC4FF0020018F0E4
:1031300095FA80BD80B500AF4FF4005018F062FAE8
:103140004FF4005018F08AFA80BD00BF80B400AF81
:1031500048F28003C2F200034FF0000283F87920A6
:1031600048F28003C2F200034BF680321A6048F244
:103170008003C2F200034FF0000283F87C2048F283
:103180008003C2F200034FF0000283F87D2048F272
:103190008003C2F200034FF0000283F87E2048F261
:1031A0008003C2F200034FF0040283F8702048F25B
:1031B0008003C2F200034FF000025A6748F2800316
:1031C000C2F200034FF0000283F8782048F2800337
:1031D000C2F200034FF0000283F87B2048F2800324
:1031E000C2F200034FF010029A7148F28003C2F25B
:1031F00000034FF010029A7148F28003C2F20003FC
:103200004FF07E529A6048F28003C2F200034FF002
:1032100032021A6148F28003C2F200034FF0030247
:1032200083F88C2048F28003C2F200034FF00902B9
:103230001A7548F28003C2F200034FF000029A8030
:1032400048F28003C2F200034FF0010283F88A20A3
:1032500048F28003C2F200034FF00C0283F88B2087
:1032600048F28003C2F200034FF0030283F880208B
:1032700048F28003C2F200034FF0060283F8812077
:1032800048F28003C2F200034FF0030283F8822069
:1032900048F28003C2F200034FF0030283F8832058
:1032A00048F28003C2F200034FF0020283F8842048
:1032B00048F28003C2F200034FF0010283F8852038
:1032C00048F28003C2F200034FF0010283F8862027
:1032D00048F28003C2F200034FF005029A7548F2EB
:1032E0008003C2F200034FF0000283F8912048F2FD
:1032F0008003C2F200034FF0140283F8922048F2D8
:103300008003C2F2000340F2EE22C3F8942048F298
:103310008003C2F200034FF0000283F8982048F2C5
:103320008003C2F200034FF0080283F8992048F2AC
:103330008003C2F200034FF4E172C3F89C2048F20C
:103340008003C2F200034FF000025A7548F2800376
:10335000C2F200034FF000021A6248F28003C2F288
:1033600000034FF000025A6248F28003C2F20003E9
:103370004FF000021A6248F28003C2F200034FF0DD
:1033800000025A6248F28003C2F200034FF00002CA
:103390009A6348F28003C2F200034FF00002DA633E
:1033A00048F28003C2F200034FF000025A6448F270
:1033B0008003C2F200034FF000029A6448F28003D7
:1033C000C2F200034FF00002DA6548F28003C2F255
:1033D00000034FF000021A6648F28003C2F20003B5
:1033E0004FF0000283F8642048F28003C2F2000329
:1033F0004FF0000283F8652048F28003C2F2000318
:103400004FF0000283F8662048F28003C2F2000306
:103410004FF000029A6648F28003C2F200034FF0B8
:103420000002DA6648F28003C2F200034FF00002A5
:103430005A7648F28003C2F200034FF00002DA61CC
:1034400048F28003C2F200034FF0000283F8A1208B
:1034500048F28003C2F200034FF00F0283F8A2206B
:1034600048F28003C2F2000393F8A230DBB21A469E
:1034700048F28003C2F20003C3F8A42048F280039C
:10348000C2F200034FF0000283F8AE2048F280033E
:10349000C2F200034FF00C0283F8AC2048F2800324
:1034A000C2F200034FF0000283F8AF2048F280031D
:1034B000C2F200034FF07C525A6548F28003C2F218
:1034C00000034FF00002DA7548F28003C2F20003F5
:1034D0004FF000021A7648F28003C2F200034FF068
:1034E00000029A6548F28003C2F200034FF0020224
:1034F00083F8A02048F28003C2F200034FF00002DC
:1035000083F8B22048F28003C2F200034FF00102B8
:1035100083F8B32048F28003C2F200034FF00402A4
:1035200083F8B42048F28003C2F200034FF0000297
:1035300083F8B52048F28003C2F200034FF0010285
:1035400083F8B62048F28003C2F2000344F2082256
:10355000C3F8B82048F28003C2F200034FF0010222
:1035600083F8BC2048F28003C2F2000344F2082230
:10357000C3F8C02048F28003C2F200034FF00102FA
:1035800083F8C42048F28003C2F200034FF00A021D
:1035900083F8C52048F28003C2F200034FF00A020C
:1035A00083F8C62048F28003C2F200034FF0000205
:1035B00083F8662048F28003C2F200034FF0000255
:1035C000C3F8C82048F28003C2F200034FF00002A3
:1035D000C3F8CC2048F28003C2F200034FF000028F
:1035E00083F8D02048F28003C2F200034FF00002BB
:1035F000C3F8D42048F28003C2F200034FF0010266
:10360000C3F8D82048F28003C2F200034FF0010251
:1036100083F8DC2048F28003C2F200034FF001027D
:1036200083F8DD2048F28003C2F200034FF001026C
:1036300083F8DE2048F28003C2F200034FF001025B
:1036400083F8DF2048F28003C2F200034FF001024A
:1036500083F8E02048F28003C2F200034FF0010239
:1036600083F8E12048F28003C2F200034FF0010228
:1036700083F8E22048F28003C2F200034FF0010217
:1036800083F8E32048F28003C2F200034FF0010206
:1036900083F8E42048F28003C2F200034FF00002F6
:1036A00083F8872048F28003C2F200034FF0000243
:1036B00083F8882048F28003C2F200034FF0000232
:1036C00083F8892048F28003C2F200034FF0000221
:1036D00083F87F2048F28003C2F200034FF00A0211
:1036E00083F8EE2048F28003C2F200034FF001029B
:1036F00083F8EF2048F28003C2F200034FF000028B
:1037000083F8AD2048F28003C2F200034FF00002BC
:1037100083F8F02048F28003C2F200034FF0000269
:10372000C3F8F42048F28003C2F200034FF0000215
:1037300083F8F82048F28003C2F200034FF0FF0242
:1037400083F8F92048F28003C2F200034FF0C00270
:10375000C3F8FC2048F28003C2F200034FF00002DD
:1037600083F8FA2048F28003C2F200034FF0C0024F
:10377000C3F8042148F28003C2F200034FF00102B3
:10378000C3F8082148F28003C2F200034FF00002A0
:10379000C3F80C2148F28003C2F200034FF000028C
:1037A000C3F8102148F28003C2F200034FF0000278
:1037B000C3F8142148F28003C2F200034FF0000264
:1037C000C3F8182148F28003C2F200034FF0000250
:1037D00083F81C2148F28003C2F200034FF000027C
:1037E00083F81D2148F28003C2F200034FF000026B
:1037F00083F81E2148F28003C2F200034FF000025A
:10380000C3F8242148F28003C2F200034FF0000203
:1038100083F8282148F28003C2F200034FF000022F
:1038200083F8292148F28003C2F200034FF000021E
:10383000C3F82C2148F28003C2F200034FF00002CB
:10384000A3F8322148F28003C2F200034FF00002D5
:10385000A3F8302148F28003C2F200034FF00002C7
:1038600083F8342148F28003C2F200034FF00002D3
:1038700083F8352148F28003C2F200034FF00002C2
:10388000C3F8382148F28003C2F200034FF000026F
:1038900083F83C2148F28003C2F200034FF000029B
:1038A00083F83D2148F28003C2F200034FF000028A
:1038B000C3F8402148F28003C2F200034FF0000237
:1038C000C3F8442148F28003C2F200034FF0000223
:1038D000C3F8482148F28003C2F200034FF000020F
:1038E000C3F84C2148F28003C2F200034FF00002FB
:1038F000C3F8502148F28003C2F200034FF00002E7
:10390000C3F8542148F28003C2F200034FF00002D2
:10391000C3F8582148F28003C2F200034FF00002BE
:10392000C3F85C2148F28003C2F200034FF0640246
:10393000C3F86021BD4680BC704700BF80B500AFB2
:1039400048F28003C2F200031B689FED040A184688
:103950004FF0000117F0BCFA80BD00BF000000006E
:1039600080B500AF19F0A2FD4FF0010019F006FC80
:10397000FFF7ECFB2CF018FA03461A4648F28003D6
:10398000C2F20003A3F8B0204FF0640002F0E2FF9F
:10399000FFF7D4FF27F09CFE28F008FB28F066FC18
:1039A00005F0E6F91AF0D4F805F0E2F948F28003E0
:1039B000C2F200034FF063025A734FF0000000F0B0
:1039C00091FC1AF0B3F9FCE780B485B000AF7860E1
:1039D00039604FF00003FB604FF46053C4F2020300
:1039E0009B68FB60FB6823F07843FB607A683B6868
:1039F0001343FA681343FB604FF46053C4F20203AD
:103A0000FA689A6007F11407BD4680BC704700BF92
:103A100080B489B000AF78604FF00003BB614FF015
:103A200000037B614FF00003FB614FF002033B6139
:103A30004FF00003FB604FF00203BB604FF4605394
:103A4000C4F202039B6803F00C03BB61BB69042B47
:103A50000AD0082B0FD0002B60D17A684FF4105396
:103A6000C0F2F403136060E07A684FF41053C0F2C0
:103A7000F403136059E04FF46053C4F202035B682F
:103A800003F480034FEA9353FB604FF46053C4F296
:103A900002035B6803F03F03BB60FB68002B14D09C
:103AA0004FF41053C0F2F403BA68B3FBF2F24FF4D0
:103AB0006053C4F20203596847F6C0730B404FEAE3
:103AC000931303FB02F3FB6113E04FF41053C0F2B6
:103AD000F403BA68B3FBF2F24FF46053C4F202038A
:103AE000596847F6C0730B404FEA931303FB02F388
:103AF000FB614FF46053C4F202035B6803F440338C
:103B00004FEA134303F101034FEA43033B61FA69B0
:103B10003B69B2FBF3F27B681A6006E07A684FF407
:103B20001053C0F2F403136000BF4FF46053C4F2AB
:103B300002039B6803F0F003BB61BB694FEA1313F8
:103B4000BB6147F64C53C0F60403BA699B181B7857
:103B50007B617B681A687B6922FA03F27B685A6092
:103B60004FF46053C4F202039B6803F4E053BB615B
:103B7000BB694FEA9323BB6147F64C53C0F604037D
:103B8000BA699B181B787B617B685A687B6922FA4B
:103B900003F27B689A604FF46053C4F202039B689F
:103BA00003F46043BB61BB694FEA5333BB6147F623
:103BB0004C53C0F60403BA699B181B787B617B6881
:103BC0005A687B6922FA03F27B68DA6007F12407FE
:103BD000BD4680BC704700BF80B483B000AF786042
:103BE0000B46FB70FB78002B0CD04FF46053C4F2F3
:103BF00002034FF46052C4F20202116B7A680A4366
:103C00001A630DE04FF46053C4F202034FF46052A4
:103C1000C4F20202116B7A686FEA02020A401A6368
:103C200007F10C07BD4680BC704700BF80B483B06D
:103C300000AF78600B46FB70FB78002B0CD04FF484
:103C40006053C4F202034FF46052C4F20202516B9B
:103C50007A680A435A630DE04FF46053C4F20203DA
:103C60004FF46052C4F20202516B7A686FEA0202AA
:103C70000A405A6307F10C07BD4680BC704700BF7D
:103C800080B483B000AF78600B46FB70FB78002BEC
:103C90000CD04FF46053C4F202034FF46052C4F2EC
:103CA0000202916B7A680A439A630DE04FF4605305
:103CB000C4F202034FF46052C4F20202916B7A68BC
:103CC0006FEA02020A409A6307F10C07BD4680BC06
:103CD000704700BF80B483B000AF78600B46FB70C4
:103CE000FB78002B0CD04FF46053C4F202034FF466
:103CF0006052C4F20202116C7A680A431A640DE041
:103D00004FF46053C4F202034FF46052C4F2020253
:103D1000116C7A686FEA02020A401A6407F10C0714
:103D2000BD4680BC704700BF80B483B000AF7860F0
:103D30000B46FB70FB78002B0CD04FF46053C4F2A1
:103D400002034FF46052C4F20202516C7A680A43D3
:103D50005A640DE04FF46053C4F202034FF4605212
:103D6000C4F20202516C7A686FEA02020A405A6495
:103D700007F10C07BD4680BC704700BF80B483B01C
:103D800000AF78600B46FB70FB78002B0CD04FF433
:103D90006053C4F202034FF46052C4F20202116A8B
:103DA0007A680A431A620DE04FF46053C4F20203CA
:103DB0004FF46052C4F20202116A7A686FEA02029A
:103DC0000A401A6207F10C07BD4680BC704700BF6D
:103DD00080B483B000AF78600B46FB70FB78002B9B
:103DE0000CD04FF46053C4F202034FF46052C4F29B
:103DF0000202516A7A680A435A620DE04FF4605336
:103E0000C4F202034FF46052C4F20202516A7A68AB
:103E10006FEA02020A405A6207F10C07BD4680BCF5
:103E2000704700BF80B582B000AF7860396000F0A5
:103E3000D1FA786800F098FA7868396800F008F8E4
:103E40004FF00003184607F10807BD4680BD00BFCC
:103E500080B582B000AF786039604FF00F004FF04E
:103E6000000100F059FA0346002B57D14FF0000033
:103E70004FF01F0100F050FA4FF001004FF01F010A
:103E800000F04AFA4FF0000000F0D0F94FF00400C3
:103E90004FF0120100F040FA4FF005004FF0000122
:103EA00000F03AFA4FF006004FF0620100F034FAE9
:103EB0003B68002B06D14FF007004FF0020100F0E5
:103EC0002BFA05E04FF007004FF00E0100F024FA46
:103ED0007A684BF680339A4205D14FF008004FF0D4
:103EE000000100F019FA7B68B3F5FA4F05D14FF0E5
:103EF00008004FF0180100F00FFA7B68B3F5FA5F85
:103F000005D14FF008004FF00C0100F005FA4FF01A
:103F100009004FF0010100F0FFF900E000BF07F1D8
:103F20000807BD4680BD00BF90B583B000AF48F222
:103F30008003C2F2000393F87930DBB2002B1BD16F
:103F40004FF0000000F072F94FF0000000F0BCFAF2
:103F50004FF004004FF0120100F0DEF94FF00600C0
:103F60004FF0620100F0D8F948F28003C2F200037A
:103F70004FF001025A76D1E04FF0000000F056F900
:103F80004CF2EC13C2F2000303F62C231A684CF235
:103F9000EC13C2F2000303F543631A6048F2800396
:103FA000C2F2000393F87B30DBB2022B11D048F24F
:103FB0008003C2F2000393F87B30DBB2022B0BD1FB
:103FC00048F28003C2F2000393F8AF30DBB2002B5B
:103FD00002D000F0A7F8A1E048F28003C2F200038B
:103FE00093F8AF30DBB2002B0CD048F28003C2F262
:103FF000000393F83C31DBB2002B40F08F8000F0DF
:1040000091F88BE04FF00003FB7107E04FF00000E8
:1040100000F00CF9FB7903F10103FB71FB79072B2D
:10402000F4D94FF0000402E000BF04F1010444F2AF
:104030003F23C0F20F039C42F6D948F28003C2F23C
:10404000000393F8A130DBB2002B5DD148F280036E
:10405000C2F2000393F8A230DBB2322B21D948F22E
:104060008003C2F200034FF0010283F8AE2048F251
:104070008003C2F2000393F8A230DBB2A3F1230263
:1040800045F25653C5F2555383FB02014FEAE273E2
:10409000CB1A1A4648F28003C2F20003C3F8A420E8
:1040A00015E048F28003C2F200034FF0000283F8EB
:1040B000AE2048F28003C2F2000393F8A230DBB2D4
:1040C0001A4648F28003C2F20003C3F8A42048F263
:1040D0008003C2F2000393F8AE30DBB2002B06D1AE
:1040E0004FF004004FF0140100F016F905E04FF016
:1040F00004004FF0150100F00FF94FF006004FF0EB
:10410000610100F009F909E048F28003C2F20003FE
:1041100093F8AC30DBB2184600F0D6F907F10C0783
:10412000BD4690BD80B582B000AF48F28003C2F2B8
:10413000000393F87930DBB2012B6FD148F2800392
:10414000C2F200039B7DDBB2002B59D048F2800302
:10415000C2F200035B6D7B6097ED017AD7ED017AC7
:1041600067EE277AC7ED017AB7EE007AD7ED017ACC
:10417000C7EE277AC7ED017A97ED010A30F0BEFB52
:1041800087ED010A97ED017AF2EE047A67EE277A5D
:10419000C7ED017A48F28003C2F200039B7DDBB2D7
:1041A00007EE103AF8EE477AC7ED007A97ED007AFD
:1041B000F1EE087A67EE277AC7ED007A97ED017A7B
:1041C000D7ED007A77EE277AC7ED017A97ED017A7D
:1041D000DFED157AB4EEE77AF1EE10FA05DD4FF077
:1041E0000003C4F2FE237B600DE0D7ED017AF5EE0B
:1041F000C07AF1EE10FA06D54FF000037B6002E0C2
:104200004FF000037B60D7ED017AFCEEE77A17EE02
:10421000903ADBB2184600F009F800E000BF07F161
:104220000807BD4680BD00BF0000FE4280B584B0D7
:1042300000AF0346FB71FB79FB60FB6803F12F03C2
:10424000FB60FB682E2B02D84FF02F03FB60FB684E
:104250007F2B02D94FF07F03FB6048F28003C2F24C
:10426000000393F87930DBB2012B2AD148F28003A6
:10427000C2F2000393F83C31DBB2002B13D148F2B9
:104280008003C2F2000393F83C31DBB2002B11D162
:1042900048F28003C2F2000393F82931DBB203F045
:1042A0000403002B06D04FF003004FF0000100F094
:1042B00033F80CE04FF003004FF0780100F02CF8D9
:1042C00005E04FF003004FF0780100F025F8FB689F
:1042D0009BB24FF00200194600F01EF807F11007DC
:1042E000BD4680BD80B582B000AF0346FB71FB794F
:1042F000002B06D04FF005004FF0080100F00CF83D
:1043000005E04FF005004FF0000100F005F807F15F
:104310000807BD4680BD00BF80B584B000AF02462F
:104320000B46FA71BB80FB794FEA4303DAB2BB88D4
:104330004FEA13239BB2DBB203F00103DBB213435A
:10434000DBB2FB73BB88BB73FA7BBB7B4FF03400E3
:1043500011461A4617F01AFD03467B737B7B1846FD
:1043600007F11007BD4680BD80B586B000AF78600C
:104370004FF400404FF00101FFF7ACFC4FF47050D8
:10438000C4F2000016F020FB7B683B614FF0000395
:104390007B814FF00003BB814FF00003BB824FF4E1
:1043A00000733B814FF00003FB8107F108034FF4DA
:1043B0007050C4F20000194616F08EFB07F1080396
:1043C0004FF04020194616F0D1FC07F11807BD4602
:1043D00080BD00BF80B582B000AF4FF4E0533B60BA
:1043E0004FF002033B714FF002037B714FF000036B
:1043F000BB714FF00003FB713B464FF40060C4F209
:104400000200194603F020FA4FF400433B604FF0DE
:1044100002033B714FF002037B714FF00003BB714D
:104420004FF00003FB713B464FF00000C4F2020066
:10443000194603F009FA4FF400733B604FF0030391
:104440007B714FF002033B714FF00003BB714FF0E3
:104450000003FB713B464FF40060C4F202001946B2
:1044600003F0F2F94FF080404FF02051FFF7ACFA23
:104470004FF00000C4F202004FF00F014FF00602AF
:1044800003F0BEFA4FF40060C4F202004FF00A01DC
:104490004FF0060203F0B4FA4FF40060C4F20200D9
:1044A0004FF00C014FF0060203F0AAFA4FF400603F
:1044B000C4F202004FF00B014FF0060203F0A0FA25
:1044C00007F10807BD4680BD80B584B000AF034644
:1044D000FB71FB79FB81FB8943F48073FB81FB89D2
:1044E0004FF000001946FFF717FF07F11007BD4610
:1044F00080BD00BF80B485B000AF786039604FF0F8
:104500000003FB604FF00003FB727B685B68FB609D
:10451000FB6823F0407323F48073FB603B681B79D6
:104520004FEA03223B681B681343FA681343FB609E
:104530007B68FA685A607B689B68FB60FA684FF298
:10454000FD73CCF2FF031340FB603B681A693B68C4
:10455000DB681A433B689B681A433B685B794FEA08
:1045600043031343FA681343FB607B68FA689A605D
:104570007B68DB6AFB60FB6823F47003FB603B68CD
:104580001B7D03F1FF33DAB2FB7A1343FB72FB7A34
:104590004FEA0353FA681343FB607B68FA68DA62F8
:1045A00007F11407BD4680BC704700BF80B483B0DC
:1045B00000AF78607B684FF000021A607B684FF0B4
:1045C00000021A717B684FF000025A717B684FF04D
:1045D00000029A607B684FF00002DA607B684FF05F
:1045E00000021A617B684FF001021A7507F10C078F
:1045F000BD4680BC704700BF80B485B000AF786016
:104600004FF00003FB604FF40C53C4F201035B68EE
:10461000FB60FA6843F2E003CFF6FC731340FB60E3
:104620007B681A687B685B681A437B689B681A43DF
:104630007B68DB681343FA681343FB604FF40C5349
:10464000C4F20103FA685A6007F11407BD4680BC42
:10465000704700BF80B483B000AF78600B46FB703A
:10466000FB78002B06D07B689B6843F001027B68D7
:104670009A6005E07B689B6823F001027B689A6082
:1046800007F10C07BD4680BC704700BF80B485B001
:1046900000AF7860F970BA707B704FF00003FB6078
:1046A0004FF00003BB60FB78092B27D97B68DB68E0
:1046B000FB60FA7813464FEA43039B18A3F11E03ED
:1046C0004FF0070202FA03F3BB60BB686FEA030313
:1046D000FA681340FB607978FA7813464FEA43038F
:1046E0009B18A3F11E0301FA03F3BB60FA68BB68D1
:1046F0001343FB607B68FA68DA6022E07B681B6921
:10470000FB60FA7813464FEA43039B184FF0070209
:1047100002FA03F3BB60BB686FEA0303FA68134055
:10472000FB607978FA7813464FEA43039B1801FA45
:1047300003F3BB60FA68BB681343FB607B68FA68ED
:104740001A61BB78062B27D87B685B6BFB60BB7854
:1047500003F1FF3213464FEA83039B184FF01F0209
:1047600002FA03F3BB60BB686FEA0303FA68134005
:10477000FB60F978BB7803F1FF3213464FEA8303FD
:104780009B1801FA03F3BB60FA68BB681343FB6034
:104790007B68FA685A6351E0BB780C2B27D87B689A
:1047A0001B6BFB60BA7813464FEA83039B18A3F197
:1047B00023034FF01F0202FA03F3BB60BB686FEAEA
:1047C0000303FA681340FB60F978BA7813464FEA9E
:1047D00083039B18A3F1230301FA03F3BB60FA6878
:1047E000BB681343FB607B68FA681A6326E07B684A
:1047F000DB6AFB60BA7813464FEA83039B18A3F188
:1048000041034FF01F0202FA03F3BB60BB686FEA7B
:104810000303FA681340FB60F978BA7813464FEA4D
:1048200083039B18A3F1410301FA03F3BB60FA6809
:10483000BB681343FB607B68FA68DA6207F1140710
:10484000BD4680BC704700BF80B483B000AF7860C5
:104850007B689B6843F080427B689A6007F10C0795
:10486000BD4680BC704700BF80B483B000AF7860A5
:104870007B68DB6C9BB2184607F10C07BD4680BC19
:10488000704700BF80B485B000AF78604FF0000380
:10489000BB600EE04FF00003FB6003E0FB6803F138
:1048A0000103FB60FB680E2BF8D9BB6803F1010321
:1048B000BB60BA687B689A42ECD307F11407BD4627
:1048C00080BC704780B582B000AF4FF004033B60FE
:1048D0004FF001033B714FF00003BB714FF0000339
:1048E000FB714FF000037B713B464FF44060C4F214
:1048F0000200194602F0A8FF4FF44063C4F202031D
:104900004FF004025A8307F10807BD4680BD00BF7F
:1049100080B588B000AF4FF480404FF00101FFF741
:10492000D9F94FF002033B774FF00003BB774FF00C
:1049300003037B774FF40053BB6107F118034FF477
:104940008060C4F20200194602F07EFF4FF00803B7
:10495000BB6107F118034FF40060C4F2020019466E
:1049600002F072FF4FF00403BB6107F118034FF42C
:104970000060C4F20200194602F066FF4FF4806046
:10498000C4F202004FF00D014FF0050203F038F8B9
:104990004FF40060C4F202004FF002014FF0050234
:1049A00003F02EF84FF40060C4F202004FF0030150
:1049B0004FF0050203F024F84FF46050C4F20000F9
:1049C00016F002F84FF00003BB804FF000033B816C
:1049D0004FF002037B814FF00103BB814FF4007362
:1049E000FB814FF008033B824FF000037B824FF4C2
:1049F0008273FB8007F104034FF46050C4F200009F
:104A0000194616F025F84FF46050C4F200004FF03C
:104A1000010116F06BF94FF001033B774FF00003F3
:104A2000BB774FF002037B774FF48053BB6107F1F4
:104A300018034FF48050C4F20200194602F004FF3C
:104A40004FF00803BB6107F118034FF44060C4F254
:104A50000200194602F0F8FE4FF48050C4F2020042
:104A60004FF4805102F0B0FF07F12007BD4680BD32
:104A700080B582B000AF4FF46050C4F200004FF038
:104A8000000116F033F94FF46050C4F2000015F045
:104A90009BFF4FF000033B714FF000037B714FF41D
:104AA00000533B603B464FF48060C4F2020019465D
:104AB00002F0CAFE4FF008033B603B464FF4006033
:104AC000C4F20200194602F0BFFE4FF004033B603F
:104AD0003B464FF40060C4F20200194602F0B4FEF7
:104AE0004FF480533B603B464FF48050C4F20200C9
:104AF000194602F0A9FE07F10807BD4680BD00BFB8
:104B000080B582B000AF4CF6B3733B604FF0020348
:104B10003B714FF003037B714FF00003BB714FF00B
:104B20000003FB713B464FF44060C4F2020019469B
:104B300002F08AFE4FF44060C4F202004FF0000120
:104B40004FF00C0202F05CFF4FF44060C4F2020030
:104B50004FF001014FF00C0202F052FF4FF44060A1
:104B6000C4F202004FF004014FF00C0202F048FFC3
:104B70004FF44060C4F202004FF005014FF00C0208
:104B800002F03EFF4FF44060C4F202004FF0070114
:104B90004FF00C0202F034FF4FF44060C4F2020008
:104BA0004FF008014FF00C0202F02AFF4FF4406072
:104BB000C4F202004FF009014FF00C0202F020FF96
:104BC0004FF44060C4F202004FF00A014FF00C02B3
:104BD00002F016FF4FF44060C4F202004FF00B01E8
:104BE0004FF00C0202F00CFF4FF44060C4F20200E0
:104BF0004FF00E014FF00C0202F002FF4FF4406044
:104C0000C4F202004FF00F014FF00C0202F0F8FE68
:104C10004FF680733B604FF002033B714FF003038C
:104C20007B714FF00003BB714FF00003FB713B46FB
:104C30004FF48050C4F20200194602F005FE4FF412
:104C40008050C4F202004FF007014FF00C0202F056
:104C5000D7FE4FF48050C4F202004FF008014FF02D
:104C60000C0202F0CDFE4FF48050C4F202004FF06F
:104C700009014FF00C0202F0C3FE4FF48050C4F261
:104C800002004FF00A014FF00C0202F0B9FE4FF49F
:104C90008050C4F202004FF00B014FF00C0202F002
:104CA000AFFE4FF48050C4F202004FF00C014FF001
:104CB0000C0202F0A5FE4FF48050C4F202004FF047
:104CC0000D014FF00C0202F09BFE4FF48050C4F235
:104CD00002004FF00E014FF00C0202F091FE4FF473
:104CE0008050C4F202004FF00F014FF00C0202F0AE
:104CF00087FE4FF008033B604FF001033B714FF01C
:104D00000003BB714FF002037B713B464FF44060E0
:104D1000C4F20200194602F097FD07F10807BD46EC
:104D200080BD00BF80B500AF4FF44060C4F2020008
:104D30004FF0080102F048FE4CF25030FFF7A2FDA0
:104D40004FF44060C4F202004FF0080102F04AFE46
:104D50004CF25030FFF796FD4FF44060C4F2020071
:104D60004FF0080102F030FE48F2A060C0F20100EE
:104D7000FFF788FD80BD00BF80B596B000AF4FF053
:104D800001004FF00101FEF77BFF4FF003033B6092
:104D90004FF000037B604FF00903BB604FF000034E
:104DA000FB604FF000033B614FF000037B614FF06D
:104DB0000003BB614FF00003FB614FF000033B6257
:104DC0004FF000037B624FF01003BB624FF0000313
:104DD000FB624FF000033B634FF000037B634FF037
:104DE0000003BB634FF00003FB634FF480533B644D
:104DF0004FF000037B644FF00003BB644FF00003EF
:104E0000FB643B463B653B467B6507F11C0318464C
:104E100002F048FC4FF000004FF0010102F0EAFC04
:104E200007F15807BD4680BD80B582B000AF03468C
:104E3000FB7100BF4FF46050C4F200004FF002015C
:104E400016F026F80346002BF4D0FB799BB24FF402
:104E50006050C4F20000194615F0E8FF00BF4FF49F
:104E60006050C4F200004FF0010116F011F8034643
:104E7000002BF4D04FF46050C4F2000015F0C8FFCE
:104E800007F10807BD4680BD80B582B000AF4FF086
:104E90000003FB704FF480537B600EE07B68002BB7
:104EA00014BF00230123DBB27A6802F1FF327A607B
:104EB000002B02D04FF0FF0339E04FF46050C4F2F2
:104EC00000004FF0020115F0E3FF0346002BE5D090
:104ED000FB789BB24FF46050C4F20000194615F005
:104EE000A5FF4FF480537B600EE07B68002B14BF5E
:104EF00000230123DBB27A6802F1FF327A60002BD3
:104F000002D04FF0FF0312E04FF46050C4F20000F3
:104F10004FF0010115F0BCFF0346002BE5D04FF424
:104F20006050C4F2000015F073FF0346DBB2184670
:104F300007F10807BD4680BD80B582B000AF0346CB
:104F4000FB714FF48050C4F202004FF4805102F024
:104F500049FD4FF07000FFF767FF4FF00000FFF7CB
:104F600063FFFB791846FFF75FFF4FF48050C4F2F0
:104F700002004FF4805102F027FD07F10807BD46FB
:104F800080BD00BF80B582B000AF0346FB804FF408
:104F90008050C4F202004FF4805102F023FD4FF024
:104FA0007200FFF741FFFB884FEA13239BB2DBB28D
:104FB0001846FFF739FFFB88DBB21846FFF734FFCE
:104FC0004FF48050C4F202004FF4805102F0FCFC18
:104FD00007F10807BD4680BD80B500AF4FF07200F5
:104FE000FFF722FF80BD00BF80B582B000AF03464F
:104FF000FB804AF2DC33C2F2000393F8543EDBB28A
:10500000002B0DD0FB884FEA13239BB2DBB218466E
:10501000FFF70AFFFB88DBB21846FFF705FF05E044
:105020004FF00003C6F20203FA881A8007F108075E
:10503000BD4680BD80B582B000AF4FF48050C4F251
:1050400002004FF4805102F0CDFC4FF07300FFF7E7
:10505000EBFEFFF719FFFFF717FF0346FB71FB7924
:10506000BB80BB884FEA0323BB80FFF70DFF0346DD
:10507000FB70FB789AB2BB881343BB804FF480501F
:10508000C4F202004FF4805102F09EFCBB88184627
:1050900007F10807BD4680BD80B582B000AF02466B
:1050A0000B46FA80BB804AF2DC33C2F2000393F86D
:1050B000543EDBB2002B09D0FB88DBB21846FFF769
:1050C0003BFFBB881846FFF75DFF09E04FF0C04388
:1050D000FA881A804FF00003C6F20203BA881A80D9
:1050E00007F10807BD4680BD80B582B000AF03461A
:1050F000FB804AF2DC33C2F2000393F8543EDBB289
:10510000002B08D0FB88DBB21846FFF715FFFFF72E
:1051100091FF034609E04FF0C043FA881A804FF030
:105120000003C6F202031B889BB2184607F108076A
:10513000BD4680BD80B582B000AF02460B46FA8006
:10514000BB80BB884FF020001946FFF7A5FFFB8806
:105150004FF021001946FFF79FFF07F10807BD46F2
:1051600080BD00BF80B584B000AF0346FB804FF028
:1051700000004FF00001FFF7DDFF4AF2DC33C2F21E
:10518000000393F8543EDBB2002B27D04FF02200EF
:10519000FFF7D2FE4FF48053C4F202034FF4805263
:1051A0005A83FFF719FF4FF00003FB6007E0FB880D
:1051B0001846FFF719FFFB6803F10103FB60FA686B
:1051C00048F6FF73C0F201039A42F0D94FF48053BE
:1051D000C4F202034FF480521A8319E04FF0C04327
:1051E0004FF022021A804FF00003FB6009E04FF0FD
:1051F0000003C6F20203FA881A80FB6803F1010378
:10520000FB60FA6848F6FF73C0F201039A42EED9D8
:1052100007F11007BD4680BD80B500AF4AF2DC3310
:10522000C2F2000393F8543EDBB2002B0ED04FF0D5
:105230002200FFF781FE4FF48050C4F202004FF4C9
:10524000805102F0CFFBFFF7C7FE04E04FF0C043F0
:105250004FF022021A8080BD80B584B000AFF88084
:10526000B9807A807B704FF00003FB60FA88BB88BE
:1052700010461946FFF75EFF7B78012B23D1FFF71D
:10528000CBFF4FF00003FB6007E03B8B1846FFF7B6
:10529000ABFEFB6803F10103FB607A88FB689A426E
:1052A000F3D84AF2DC33C2F2000393F8543EDBB287
:1052B000002B35D04FF48050C4F202004FF48051DF
:1052C00002F082FB2CE04FF00003FB6024E0FFF7CC
:1052D000A3FF3B8B1846FFF787FE4AF2DC33C2F28E
:1052E000000393F8543EDBB2002B07D04FF48050FC
:1052F000C4F202004FF4805102F066FBFB8803F118
:105300000103FB80FA88BB8810461946FFF712FF9D
:10531000FB6803F10103FB607A88FB689A42D6D8E8
:1053200007F11007BD4680BD80B586B000AFF8809C
:10533000B9807A803B804FF000037B614FF000031F
:105340003B613B88FB814FF000037B6156E0FA88AC
:10535000BB8810461946FFF7EDFEFFF75DFFFB899E
:105360004FEAD3039BB24FEAC3239AB2FB894FEAB9
:1053700093039BB24FEA43139BB213439AB2FB8948
:105380004FEAD3039BB29BB213439BB29BB2184626
:10539000FFF72AFE4AF2DC33C2F2000393F8543ED0
:1053A000DBB2002B07D04FF48050C4F202004FF460
:1053B000805102F009FB3B6903F101033B613B694A
:1053C000082B13D17B884FEA53039BB21A467B69A3
:1053D0009A4204D9FB8903F10403FB8103E0FB89B2
:1053E000A3F10403FB814FF000033B61FB8803F151
:1053F0000103FB807B6903F101037B617A887B6990
:105400009A42A4D807F11807BD4680BD80B584B084
:1054100002AFF880B9807A803B80F988BA883B88EF
:10542000388A0090084611461A464FF00003FFF7ED
:1054300013FFF988BA887B88388A0090084611469D
:105440001A464FF00103FFF707FFFA883B88D3188D
:1054500099B27B8803F101039BB2BA88388A009025
:10546000084611461A464FF00103FFF7F5FEBA88C9
:105470007B88D3189AB2F9883B88388A009008460E
:1054800011461A464FF00003FFF7E6FE07F1080742
:10549000BD4680BD80B584B002AFF880B9807A8007
:1054A0003B80F988BA883B88388A009008461146C4
:1054B0001A464FF00003FFF7CFFEF988BA887B88C1
:1054C000388A0090084611461A464FF00103FFF74C
:1054D000C3FEFA883B88D31899B2BA887B88388A89
:1054E0000090084611461A464FF00103FFF7B4FE3C
:1054F00007F10807BD4680BD80B586B002AFF880D1
:10550000B9807A803B804AF2DC33C2F2000393F820
:10551000543EDBB2002B7FD0FA88BB881046194678
:10552000FFF708FE4FF0030041F23801FFF7B4FD2A
:10553000BB884FF050001946FFF7AEFDBA887B8854
:10554000D3189BB203F1FF339BB24FF051001946C1
:10555000FFF7A2FDFB884FF052001946FFF79CFDB4
:10556000FA883B88D3189BB203F1FF339BB24FF00C
:1055700053001946FFF790FD7B883A8802FB03F33E
:10558000BB60FFF749FE4FF00003FB6010E03B8B70
:105590004FEA13239BB2DBB21846FFF745FC3B8B67
:1055A000DBB21846FFF740FCFB6803F10103FB6028
:1055B000FA68BB689A42EAD34FF050004FF00001FE
:1055C000FFF76AFD4FF051004FF0EF01FFF764FD68
:1055D0004FF052004FF00001FFF75EFD4FF0530017
:1055E00040F23F11FFF758FD4FF0030041F2300148
:1055F000FFF752FD1DE0F988BA887B88388B009050
:10560000084611461A464FF00103FFF725FEFB88B6
:1056100003F10103FB8000E000BF3B88002B0CBFBF
:1056200000230123DBB23A8802F1FF323A80002BDB
:10563000E1D107F11007BD4680BD00BF80B588B03D
:1056400000AFF880B980FA703B80FB88FB82FB6A70
:105650009B887B75FB6A1A68FB78A3F120034FEAED
:105660004303F96AC98801FB03F3D3183B61FA8A43
:10567000BB8810461946FFF75DFD4AF2DC33C2F2E3
:10568000000393F8543EDBB2002B00F0C4804FF0CF
:10569000030041F23801FFF7FFFCBB884FF05000D8
:1056A0001946FFF7F9FCFB6ADA88BB88D3189BB26E
:1056B00003F1FF339BB24FF051001946FFF7ECFCAA
:1056C000FB884FF052001946FFF7E6FCFB6A9A8808
:1056D000FB8AD3189BB203F1FF339BB24FF0530008
:1056E0001946FFF7D9FCFFF797FD4FF00003FB6168
:1056F00064E04FF00003BB6156E0FB694FEA4303EF
:105700003A69D3181A88797D4AF6AB23CAF6AA23D8
:10571000A3FB01034FEAD303DBB24FEAC3034FF00D
:10572000800101FA03F1BB6941FA03F39BB2134014
:105730009BB2FB81FB694FEA43033A69D3181A888D
:10574000BB694FF0010101FA03F39BB213409BB216
:10575000BB81FB89002B02D17B7D0C2B05D9BB893A
:10576000002B10D17B7D0C2B0DD93B8D4FEA1323E1
:105770009BB2DBB21846FFF757FB3B8DDBB21846F6
:10578000FFF752FB0CE03B884FEA13239BB2DBB2DE
:105790001846FFF749FB3B88DBB21846FFF744FB8E
:1057A000BB6903F10103BB61FB6A9B881A46BB69B5
:1057B0009A42A2D8FB6903F10103FB61FB6ADB8813
:1057C0001A46FB699A4294D84FF48050C4F2020002
:1057D0004FF4805102F0F8F84FF050004FF0000104
:1057E000FFF75AFC4FF051004FF0EF01FFF754FC68
:1057F0004FF052004FF00001FFF74EFC4FF0530006
:1058000040F23F11FFF748FC4FF0030041F2300136
:10581000FFF742FC74E04FF00003FB616AE04FF0D9
:105820000003BB6150E0FFF7F7FCFB694FEA43035D
:105830003A69D3181A88797D4AF6AB23CAF6AA23A7
:10584000A3FB01034FEAD303DBB24FEAC3034FF0DC
:10585000800101FA03F1BB6941FA03F39BB21340E3
:105860009BB2FB81FB694FEA43033A69D3181A885C
:10587000BB694FF0010101FA03F39BB213409BB2E5
:10588000BB81FB89002B02D17B7D0C2B05D9BB8909
:10589000002B07D17B7D0C2B04D93B8D1846FFF7DD
:1058A000A3FB03E03B881846FFF79EFBFB8A03F14E
:1058B0000103FB82FA8ABB8810461946FFF73AFCBF
:1058C000BB6903F10103BB61FB6A9B881A46BB6994
:1058D0009A42A8D8BB8803F10103BB80FB88FB82F6
:1058E000FA8ABB8810461946FFF724FCFB6903F1CE
:1058F0000103FB61FB6ADB881A46FB699A428ED87A
:1059000007F12007BD4680BD90B589B002AFBA60EF
:105910000246FA810A46BA81FB8097F82C3003F1DF
:10592000FF33032B22D801A252F823F03D5901087E
:105930004959010855590108615901084BF664633A
:10594000C0F604037B6117E04BF66C63C0F60403FA
:105950007B6111E04BF67463C0F604037B610BE0DE
:105960004BF68463C0F604037B6105E04BF67C6371
:10597000C0F604037B6100BFBB681B78FB74BB6887
:1059800003F10103BB60F889B989FA7CFB883C8D7F
:1059900000947C690194FFF751FEFA897B699B882A
:1059A000C3F5A0739A4216DA7B699A88FB89D318EB
:1059B000FB8197F82C30042B23D1BB681B78392B43
:1059C00004D9FB8903F1FF33FB811AE0FB89A3F1C2
:1059D0000203FB8115E0BA897B69DB88C3F5A073FC
:1059E0009A4208DA4FF00003FB817B69DA88BB89B1
:1059F000D318BB8105E04FF00003FB814FF000039B
:105A0000BB81BB681B78002BB6D107F11C07BD46D4
:105A100090BD00BF80B58CB000AFF860B960FA806F
:105A2000BB804FF00003BB613B8F002B03D04FF0D6
:105A30007F033B8402E04FF001033B843B8C03F186
:105A40003E037B8543E3FB681B883B85FB6803F1D2
:105A50000203FB60BB681B88FB84BB6803F1020385
:105A6000BB603B8D3F2B02D94FF03F033B85FB8C46
:105A70003F2B02D94FF03F03FB843B8DC3F1D10391
:105A8000BB843B8DFB82FB8CC3F1D1037B84FB8CFD
:105A9000BB823A8DFB8C9A4240F28781FB88002BB7
:105AA0006CD14FF00003BB8565E0BB8D4AF2DC3260
:105AB000C2F2000203F5E3634FEA4303D3189B8865
:105AC0009BB27A8D9A4252D1BB8D4AF2DC32C2F23D
:105AD000000203F5E3634FEA4303D3189B887B85F9
