:020000040801F1
:1000000018F20020B9150108C1180108D518010817
:10001000E9180108FD180108111901080000000085
:100020000000000000000000000000002519010889
:100030003919010800000000B51501084D19010823
:10004000B5150108B5150108B5150108B515010864
:10005000B5150108B515010855190108C1190108A0
:10006000B5150108B5150108B5150108B515010844
:10007000B5150108D5440108B5150108B5150108E5
:10008000B5150108B5150108B5150108B515010824
:10009000B5150108B5150108B5150108B515010814
:1000A000B5150108B5150108B5150108B515010804
:1000B00019150108B5150108B5150108B515010890
:1000C000B5150108B5150108B5150108B5150108E4
:1000D000B5150108B5150108B5150108B5150108D4
:1000E000F5190108B5150108B5150108B515010880
:1000F000B5150108B5150108B5150108B5150108B4
:10010000B5150108B5150108B5150108B5150108A3
:10011000B5150108B5150108B5150108B515010893
:10012000B5150108B5150108B5150108B515010883
:10013000B5150108B5150108B5150108B515010873
:10014000B5150108B5150108B515010879D60108DE
:10015000B5150108B5150108B5150108B515010853
:10016000B5150108B5150108B5150108B515010843
:10017000B515010821150108B5150108B5150108C7
:10018000B5150108B515010810B5054C237833B92C
:10019000044B13B10448AFF300800123237010BD5A
:1001A0005006002000000000E0A30308084B10B533
:1001B0001BB108480849AFF300800848036803B939
:1001C00010BD074B002BFBD0BDE81040184700BF07
:1001D00000000000E0A303085406002048060020A9
:1001E0000000000010B401F003039B0001F0FC01CB
:1001F00001F1804101F59C318C680F229A4024EA7C
:1002000002028A608A68984002438A605DF8044B63
:10021000704700BFC3684FF0FF325A60C3686FF089
:1002200080425A61C368014A9A61704700080080A1
:1002300070B582B005460023019303200EF004FE42
:10024000EB681A690192144C032607E030460EF061
:10025000FBFDEB681A690192013C19D0019A002A52
:10026000F4DA019A42F001020192019A1A61EB68F4
:100270001B690193084B04E0EA6812690192013B93
:1002800003D0019A12F0010FF6D103200EF0DCFD2D
:10029000002002B070BD00BF400D030010B4C47850
:1002A0006CB9033300EB8200D0F8D0409B1006D02D
:1002B000002251F8040B206001329342F9D1002052
:1002C0005DF8044B704700BF70B40332D0F8D060C3
:1002D000921009D00C460023356844F8045B0133C2
:1002E0009A42F9D101EB8201084670BC704700BF09
:1002F000F0B40023C370012383704023838001295D
:100300000DD10123C37208230370042343704FF4FB
:10031000A073C380022303724FF0A0460CE051B9D2
:100320000023C3720C230370062343704FF4A063B1
:10033000C380224E00E00026C66006F5006303611C
:10034000477887B100F1140406F5306300F15001DD
:100350000022A3F5007544F8045F41F8043F013220
:1003600020339742F5D806F58063436106F588632C
:10037000C0F8CC300478D4B1254606F5A06200F16F
:100380008C01002341F8042F013320329D42F9D81B
:100390006CB106F5805200F1CC0304F1330100EB9F
:1003A000810143F8042F02F580528B42F9D106F502
:1003B0006066C0F80C610020F0BC7047000004408B
:1003C00038B504460025037A012B21D1C268936B0E
:1003D0006FF31043417A09B143F480139363E268E9
:1003E000D3686FF386136FF396536FF351436FF334
:1003F000D343D3602046FFF71BFFE378012B25D1C1
:10040000052363F3440545F02005E3689D6012E091
:10041000C268D36843F04003D360FFF709FF637AF3
:10042000002B0CBF4FF434134FF47413E268936342
:1004300014200EF01BFDE378012B07D1E3689D68C3
:10044000052262F3440545F020059D60002038BD7B
:10045000C268936843F0010393600020704700BFB7
:10046000C268936823F0010393600020704700BFC7
:1004700000B583B000230193019B43F02003019357
:1004800001F01F01019B23F4F86343EA81110191FC
:10049000C368019A1A61C3681B690193084B04E0A1
:1004A000C26812690192013B03D0019A12F0200F39
:1004B000F6D103200EF0C8FC002003B05DF804FB69
:1004C000400D030000B583B000230193019B43F06E
:1004D00010030193C368019A1A61C3681B690193F1
:1004E000084B04E0C26812690192013B03D0019AF3
:1004F00012F0100FF6D103200EF0A6FC002003B07E
:100500005DF804FB400D030008B5C268D3686FF3C3
:100510005D736FF39E73012902D143F0005302E033
:1005200009B943F08043D36032200EF09FFC0020D5
:1005300008BD00BFC3685B6913F0010F0CBF012049
:1005400000207047C3685A6998691040704700BF1F
:1005500038B505460024C3689C61C3686FF08042CB
:100560005A61FFF757FEEB78A34208BF102444F40A
:10057000701444F4605444F00804EA6893691C431E
:100580009461002038BD00BF70B50446D0F80C312E
:1005900000251D600269136865F3CC2313601021E8
:1005A000FFF766FF2046FFF78DFF23691D61236972
:1005B0005D6123694FF0FF329A612369DD616378E1
:1005C000002B38D004F1140229462E46FF2552F89C
:1005D000043F1B68C3F3076323F07F03DBB2002BE8
:1005E0000CBF00204FF090401368186013681E6124
:1005F00013689D60013163788B42E8D8DBB104F168
:10060000500200210E46FF2552F8043F1B68C3F339
:10061000076323F07F03DBB2002B0CBF00204FF0F9
:1006200090401368186013681E6113689D60013163
:1006300063788B42E8D82269136943F480731361AD
:10064000E378012B09D10323402262F38A0343F4A8
:10065000803362F35943226913632046FFF778FF22
:10066000002070BD03699B68C3F34103022B05D0D2
:10067000032B01D0012B03D10220704701207047CA
:100680000320704703699B6882691168C3F34103C3
:10069000022B12BF6FF30A01032363F30A011160F7
:1006A0000269536843F4807353600020704700BFB1
:1006B00030B400244B78012B08D10A7800EB820378
:1006C0009D690123934063F30F0407E00A7800EB70
:1006D00082035D6D0123934063F31F442B68C3F3D2
:1006E000072222F07F0212F0FF0F0DD18A6862F319
:1006F0000A03CA7862F39343CA8862F3995343F0BA
:10070000805343F400432B600269D3692343D361D0
:10071000002030BC704700BF30B4002214464B7834
:10072000012B08D1097800EB81039D6901238B40DF
:1007300063F30F0407E00B7800EB83014D6D01219B
:10074000994061F31F446FF3CF322A600269D36985
:1007500023EA0403D361002030BC704770B54B78A6
:10076000012B53D10B7800EB83039B691A681C693A
:100770004B692BB96FF31204012363F3DC440DE0E2
:1007800063F312048D682B44013BB3FBF5F363F371
:10079000DC44CB78012B08BF63F35E740B7800EB6D
:1007A00083039B691C61C378012B06D10B7800EB96
:1007B00083039B690C695C610BE0CB78012B0BD048
:1007C0004B6993B105696C6B0E780123B3402343E9
:1007D0006B63CB78012B08D103699B6813F4807F8E
:1007E0000CBF42F0005242F0805242F004420B78BB
:1007F00000EB83039B691A60CB78012B41D10B4638
:10080000C9681A789B8AFFF749FD3AE00B7800EB3C
:1008100083035B6D1A681C694B6933B98B6863F39A
:100820001204012363F3DC440CE08D682B44013B8C
:10083000B3FBF5F3C3F3090363F3DC4405FB03F3F4
:1008400063F312040B7800EB83035B6D1C61C378C8
:10085000012B05D10B7800EB83035B6D0C695C61A8
:10086000CB78012B06D14B7913B142F0005201E055
:1008700042F0805242F004420B7800EB8300436D5B
:100880001A60002070BD00BF30B482B04B78012BDD
:1008900047D182691368146900944C696CB99DF85A
:1008A00000406FF306048DF800409DF802400125DA
:1008B00065F3C4048DF8024017E08D68AC4207D997
:1008C0004D619DF8004065F306048DF8004005E099
:1008D0009DF8005064F306058DF800509DF8024025
:1008E000012565F3C4048DF80240009C1461C478AE
:1008F000012C05D10C7800EB8404A4690D696561B5
:1009000043F004431360C378002B47D14B69002B9D
:1009100044D00069426B097801238B401343436341
:100920003CE00B7800EB83035A6D13681269009268
:100930004A6972B98C689DF8002064F306028DF84C
:1009400000209DF80220012464F3C4028DF80220E7
:100950000EE08C684C619DF8002064F306028DF86F
:1009600000209DF80220012464F3C4028DF80220C7
:100970000A7800EB8202526D009C1461C278012A51
:1009800005D10A7800EB8202526D0C69546143F084
:1009900004430A7800EB8200426D1360002002B02D
:1009A00030BC70474B78012B11D10B7800EB8300E2
:1009B00081690B68C3F3076222F07F0212F0FF0F18
:1009C00018BF43F0804343F400130B6007E00B783B
:1009D00000EB8300426D136843F4001313600020A2
:1009E000704700BF4B78012B0B7800EB83000CBFE6
:1009F0008069406D02686FF35552CB78023BDBB2E1
:100A0000012B98BF42F0805202600020704700BF67
:100A100002699369D0691840000C704700EB8101AE
:100A20004B6D9B680269506918407047036998696B
:100A3000DB69184080B2704782B000230093C02366
:100A40008DF803304FF00003012262F3C4038DF8E8
:100A5000023018238DF80030436D009A1A61C37874
:100A6000012B08D1436D00F2CC525A61436D1A68D4
:100A70004FF080221A6002B0704700BF2DE9F041AC
:100A800086B002248DF8084000258DF809504FF0FB
:100A900001088DF80B8006AF402347F8143D1B4E2C
:100AA0003046394603F0FEF880230193304639463C
:100AB00003F0F8F830460621032203F043F93046EC
:100AC0000721032203F03EF92046414601F04CF98C
:100AD00041F207030493ADF80C50ADF81450ADF893
:100AE0000E5005F1804505F5823528460321224642
:100AF00023460EF027FA284603A90EF0BFF9284630
:100B000041460EF001FA06B0BDE8F081000802404F
:100B10002DE9F04186B002248DF8084000258DF8BB
:100B200009504FF001088DF80B8006AF102347F8ED
:100B3000143D1A4E3046394603F0B4F82023019391
:100B40003046394603F0AEF830460421224603F021
:100B5000F9F830460521224603F0F4F820464146D4
:100B600001F0F4F841F207030493ADF80C50ADF82E
:100B70001450ADF80E500A4D284603212246234654
:100B80000EF0E0F9284603A90EF078F92846414610
:100B90000EF0BAF906B0BDE8F08100BF00040240D3
:100BA000000400402DE9F04186B002248DF8084091
:100BB00000258DF809504FF001088DF80B8006AF25
:100BC0004FF4805347F8143D1A4E3046394603F02F
:100BD00069F84FF4005301933046394603F062F848
:100BE00030460C21224603F0ADF830460D21224656
:100BF00003F0A8F80420414601F0A8F841F20703E9
:100C00000493ADF80C50ADF81450ADF80E500A4DE9
:100C100028460321224623460EF094F9284603A9CC
:100C20000EF02CF9284641460EF06EF906B0BDE8EC
:100C3000F08100BF000C0240000800402DE9F041A7
:100C400086B002248DF8084000268DF80960012541
:100C50008DF80B500DF1180848F8145D194F3846FF
:100C6000414603F01FF801943846414603F01AF854
:100C700038463146224603F065F838462946224672
:100C800003F060F80820294601F060F841F20703FC
:100C90000493ADF80C60ADF81460ADF80E600A4E28
:100CA00030460321224623460EF04CF9304603A974
:100CB0000EF0E4F8304629460EF026F906B0BDE8FD
:100CC000F08100BF00000240000C0040704700BFF0
:100CD000704700BF704700BF704700BF704700BF3C
:100CE000704700BF704700BF064A074901E0013A5C
:100CF00006D08B8A9BB203408342F8D10020704714
:100D0000012070470124F40000540040064A0749BE
:100D100003E0013A01D1012070470B8B03F002037D
:100D20009BB2002BF5D170470124F4000054004021
:100D300070B586B0C023049302238DF814300124CB
:100D40008DF815408DF816408DF817401B4D28463C
:100D500004A902F0A7FF28460621042202F0F2FFB0
:100D600028460721042202F0EDFF4FF4001021462F
:100D700000F0ECFF124E30460CF016FE0023ADF8EA
:100D800004304BF6FF73ADF806303323ADF808306E
:100D90004FF48063ADF80A304FF48043ADF80C3067
:100DA00006AD084B45F8183D304621460CF09EFE36
:100DB000304629460CF02AFE06B070BD0004024001
:100DC00000540040A08601002DE9F04706468A46FF
:100DD00090464C4A4C4B1A604C4F4FF400351C4621
:100DE00004E023685A1E2260002B79D03846294639
:100DF0000CF0D6FE0028F4D1444801210CF084FE0A
:100E00004FF4A062404B1A60DFF80091404D1C4641
:100E100004E023685A1E2260002B64D0484629460D
:100E20000CF0ACFE0028F4D03848314600220CF01B
:100E300087FE4FF4A062344B1A60344E354D1C4689
:100E400004E023685A1E2260002B4FD0304629460A
:100E50000CF094FE0028F4D02C4851460CF088FE8B
:100E60004FF4A062284B1A60284E2B4D1C4604E01C
:100E700023685A1E2260002B3BD0304629460CF0D6
:100E80007DFE0028F4D0214841460CF071FE1D4A39
:100E90001D4B1A601D4E214D1C4603E023685A1E4F
:100EA00022604BB3304629460CF07AFE0028F5D07C
:100EB000164801210CF036FE4FF4A062124B1A6066
:100EC000124E174D1C4603E023685A1E2260B3B130
:100ED000304629460CF064FE0028F5D1BDE8F087C5
:100EE0000120BDE8F0870220BDE8F0870320BDE8BF
:100EF000F0870420BDE8F0870520BDE8F0870620D4
:100F0000BDE8F08700DC05001C0000200054004014
:100F100001000300820007008000070004000010A9
:100F2000100000102DE9F04780468A461746994682
:100F3000504A514B1A60514E4FF400351C4605E0A3
:100F400023685A1E2260002B00F08180304629461B
:100F50000CF026FE0028F3D1484801210CF0D4FD06
:100F60004FF4A062444B1A60444E454D1C4604E0C9
:100F700023685A1E2260002B6CD0304629460CF0A4
:100F8000FDFD0028F4D03D48414600220CF0D8FD7C
:100F90004FF4A062384B1A60384E3A4D1C4604E0BC
:100FA00023685A1E2260002B57D0304629460CF089
:100FB000E5FD0028F4D0314851460CF0D9FD4FF43E
:100FC000A0622D4B1A602D4E2F4D1C4604E0236865
:100FD0005A1E2260002B43D0304629460CF0CEFD2D
:100FE0000028F4D0B9F1000F19D0B944234D224C98
:100FF000DFF88080254E284617F8011B0CF0B8FD5D
:10100000C4F8008003E023685A1E22605BB32846C0
:1010100031460CF0C5FD0028F5D04F45EBD11748FF
:1010200001210CF07FFD4FF4A062134B1A60134EA8
:10103000174D1C4603E023685A1E2260B3B13046A8
:1010400029460CF0ADFD0028F5D1BDE8F087012060
:10105000BDE8F0870220BDE8F0870320BDE8F087F7
:101060000420BDE8F0870520BDE8F0870620BDE834
:10107000F08700BF00DC05001C0000200054004089
:101080000100030082000700800007000400001038
:10109000100000102DE9F04706468A469046744A33
:1010A000744B1A60744F4FF400351C4605E02368FA
:1010B0005A1E2260002B00F0C680384629460CF0EC
:1010C0006FFD0028F3D16C4801210CF01DFD4FF499
:1010D000A062684B1A60DFF8A091684D1C4605E0DD
:1010E00023685A1E2260002B00F0B0804846294633
:1010F0000CF044FD0028F3D05F48314600220CF08C
:101100001FFD4FF4A0625B4B1A60DFF86C915C4DE1
:101110001C4605E023685A1E2260002B00F09980CF
:10112000484629460CF02AFD0028F3D05248514683
:101130000CF01EFD4FF4A0624E4B1A604E4F514D05
:101140001C4605E023685A1E2260002B00F08480B4
:10115000384629460CF024FD0028F3D046480121EA
:101160000CF0D2FC4FF4A062424B1A60424F434D48
:101170001C4604E023685A1E2260002B6FD03846BC
:1011800029460CF0FBFC0028F4D03B4831460122F4
:101190000CF0D6FC4FF4A062364B1A60364E3A4D36
:1011A0001C4604E023685A1E2260002B5AD03046A9
:1011B00029460CF0F5FC0028F4D02F4C20460021E5
:1011C0000CF0C8FC238B204601210CF0ABFC4FF443
:1011D000A062284B1A6026462C4D1C4604E023686A
:1011E0005A1E2260002B40D0304629460CF0D8FC15
:1011F0000028F4D020480CF0BDFC88F800004FF423
:10120000A0621C4B1A601C481A460AE01368591E5B
:10121000116033B9184801210CF09CFC0920BDE88D
:10122000F087038803F400739BB2002BEED1124CBD
:10123000204601210CF08EFC204615490CF0CCFC18
:101240000020BDE8F0870120BDE8F0870220BDE85E
:10125000F0870320BDE8F0870420BDE8F087062072
:10126000BDE8F0870720BDE8F0870820BDE8F087DB
:1012700000DC05001C0000200054004001000300B9
:10128000820007000400001002000010400000105F
:10129000000400102DE9F04707468A46904699461B
:1012A000964A974B1A60974E4FF400351C4605E05E
:1012B00023685A1E2260002B00F00D81304629461B
:1012C0000CF06EFC0028F3D18E4801210CF01CFCC0
:1012D0004FF4A0628A4B1A608A4E8B4D1C4605E083
:1012E00023685A1E2260002B00F0F8803046294601
:1012F0000CF044FC0028F3D08248394600220CF060
:101300001FFC4FF4A0627E4B1A607E4E7F4D1C4640
:1013100005E023685A1E2260002B00F0E280304670
:1013200029460CF02BFC0028F3D0764851460CF0EF
:101330001FFC4FF4A062724B1A60724E744D1C4633
:1013400005E023685A1E2260002B00F0CD80304655
:1013500029460CF025FC0028F3D06A4801210CF046
:10136000D3FB4FF4A062664B1A60664E664D1C4676
:1013700005E023685A1E2260002B00F0B88030463A
:1013800029460CF0FBFB0028F3D05E4839460122C9
:101390000CF0D6FB4FF4A062594B1A60594E5D4DCC
:1013A0001C4605E023685A1E2260002B00F0A28034
:1013B000304629460CF0F4FB0028F3D0B9F1010FB8
:1013C00003D0B9F1020F1CD04AE04E4C238823F41D
:1013D00080631B041B0C2380238B23889BB243F464
:1013E0000073238020460CF0C5FB88F80000FFF74F
:1013F0008DFC23889BB243F4806323800020BDE8EA
:10140000F087404C238823F480631B041B0C23804B
:1014100023889BB243F400632380238B0420FFF7CF
:1014200063FC23889BB243F40073238020460CF0B6
:10143000A1FB88F8000020460CF09CFB88F8010016
:10144000FFF764FC23889BB243F4806323802388E6
:1014500023F400631B041B0C23800020BDE8F087ED
:10146000284B1B8BB9F1030F0FD9A9F10304444496
:10147000244E042530460CF07DFB08F8010B28466D
:10148000FFF732FCA045F5D100E044461D4D2B8806
:1014900023F480631B041B0C2B8028460CF06AFB92
:1014A00020700420FFF720FC2B889BB243F40073CC
:1014B0002B8028460CF05EFB607028460CF05AFB2F
:1014C000A070FFF723FC2B889BB243F480632B8032
:1014D0000020BDE8F0870120BDE8F0870220BDE8CC
:1014E000F0870320BDE8F0870420BDE8F0870620E0
:1014F000BDE8F0870720BDE8F08700BF00DC0500ED
:101500001C0000200054004001000300820007007E
:10151000040000100200001008B502F0D5FA08BD62
:10152000704700BF30B4094D2A6840F6FE7383400F
:1015300022EA03044A680B681A438B681343CA689B
:101540001343834023432B6030BC7047007400403A
:1015500031B107490A680123834013430B60704788
:1015600003490A680123834022EA03030B607047A2
:101570000074004082B000230193054B0193019B4E
:10158000083318440190019B196002B0704700BFF6
:101590000074004082B000230193054B0193019B2E
:1015A000143318440190019B196002B0704700BFCA
:1015B00000740040FEE700BF08B5134B134A9A427F
:1015C0000DD2101D0333181A20F003000430104B05
:1015D000184453F8041B42F8041B8342F9D10D4808
:1015E0000D494FF000028842B8BF40F8042BFADBE7
:1015F000DFF82800016841F47001016002F0DAFCB4
:1016000000F0FEFA08BD00BF4C06002000000020DC
:10161000E0A303085006002018E2002088ED00E057
:1016200010B50446D0F8E8351B699847032384F8C1
:101630001231002010BD00BF08B590F8123180F8BB
:101640001331042380F81231D0F8E835DB6898476D
:10165000002008BD08B5D0F8E435DB6903B1984730
:10166000002008BD08B5D0F8E4351B6A9847002073
:1016700008BD00BF08B5D0F8E4355B6A9847002084
:1016800008BD00BF10B50446002140220B460CF0F7
:10169000A3FB20468021402200230CF09DFB012368
:1016A00084F81231D4F8E8355B68A07898470020B8
:1016B00010BD00BF10B582B00446694605F088FA37
:1016C0009DF8001001F01F03012B08D013B1022B6D
:1016D0000AD00EE02046694605F0AAFA0EE0204640
:1016E000694605F039FC09E02046694605F050FCE2
:1016F00004E0204601F080010CF014FC002002B050
:1017000010BD00BF10B50446002949D190F8113131
:10171000022B39D1D0F83821D0F824319A4211D98E
:10172000D21AC0F83821C178012904D1D0F8281183
:101730000B44C0F828312046D4F8281192B20DF09D
:10174000DBFA21E0D0F83C11B1FBF3F203FB1212FB
:101750006AB98B420BD8D0F84031994207D20021A8
:101760000A460DF0C9FA0023C4F840310CE0D4F861
:10177000E435DB682BB194F81221032A01D120460D
:10178000984720460DF0EEFA94F81631012B12D14D
:1017900023690A4A12685A60002384F816310AE065
:1017A0000A46D0F8E4355B692BB190F81211032991
:1017B00001D111469847002010BD00BFEC10002059
:1017C00010B5044659BB90F81131032B32D1D0F833
:1017D0009023D0F87C339A4214D9D21AC0F89023BF
:1017E000C178012904D1D0F880131944C0F88013BE
:1017F0009A4228BF1A462046D4F8801392B20DF0C0
:1018000097FA17E0D0F8E4351B6923B190F812215C
:10181000032A00D1984720460DF094FA0AE00A46C0
:10182000D0F8E4359B692BB190F81211032901D14E
:1018300011469847002010BDF8B504460D461646DF
:101840001F460DF09FFAC4F8E475069BC4F8E8350E
:10185000C4F8EC65204629460CF068FA20460DF0E5
:10186000DBFAF8BD10B504460CF0B2FA20460DF0D4
:10187000B1FA002010BD00BF10B50446D0F8E43521
:101880001B689847D4F8E8359B689847002010BD3E
:1018900008B5D0F8E4355B689847002008BD00BF64
:1018A000BFF34F8F0449CA6802F4E062034B13434D
:1018B000CB60BFF34F8FFEE700ED00E00400FA05B8
:1018C00008B5034802F0F2F80120FFF7E9FF00BF76
:1018D00098EC020808B5034802F0E8F80220FFF788
:1018E000DFFF00BFB0EC020808B5034802F0DEF8E5
:1018F0000320FFF7D5FF00BFCCEC020808B5034872
:1019000002F0D4F80420FFF7CBFF00BFE8EC020898
:1019100008B5034802F0CAF80520FFF7C1FF00BF71
:1019200004ED020808B5034802F0C0F80620FFF7EE
:10193000B7FF00BF20ED020808B5034802F0B6F873
:101940000720FFF7ADFF00BF38ED020808B513F020
:1019500053FB08BD08B501200CF08AF940B3164BC3
:1019600093F87A30DBB2022B07D11448012102F040
:10197000DFF9E8B90CF03AFE1AE00F4B93F87A3031
:1019800013F0FF0F0BD00C4B93F87A30DBB2012B26
:1019900005D0094B93F87A30DBB2032B08D1074806
:1019A000012102F0C5F918B90122034B83F879200F
:1019B00001200CF06BF908BDF0100020001002406F
:1019C00008B502200CF054F960B1084B93F87A3056
:1019D000DBB2022B06D10648022102F0A9F908B9B0
:1019E0000CF038FE02200CF051F908BDF010002078
:1019F0000010024008B54FF400500CF039F94FF4D4
:101A000000500CF043F908BD70B4754B002283F808
:101A100078204BF68031196083F87B2083F87C2096
:101A200083F87D20042483F870405A6783F87A2075
:101A30001021997199714FF07E519960322119618D
:101A4000032083F88B00092119759A80012183F8FE
:101A500089100C2683F88A6083F87F00062583F8B6
:101A6000805083F8810083F88200022583F8835038
:101A700083F8841083F885100520987583F89020EA
:101A8000142083F8910040F2EE20C3F8940083F80C
:101A90009820082083F899004FF4E170C3F89C0067
:101AA0005A751A625A621A625A629A63DA635A64FF
:101AB0009A64DA651A6683F8642083F8652083F8EF
:101AC00066209A66DA665A76DA6183F8A1200F20DA
:101AD00083F8A20093F8A200C0B2C3F8A40083F870
:101AE000AE2083F8AC6083F8AF204FF07C5058658F
:101AF000DA751A769A6583F8A05083F8B22083F8D5
:101B0000B31083F8B44083F8B52083F8B61044F2DC
:101B10000820C3F8B80083F8BC100A2083F8BD0081
:101B200083F8BE0083F86620C3F8C020C3F8C42041
:101B300083F8C820C3F8CC20C3F8D01083F8D410A1
:101B400083F8D51083F8D61083F8D71083F8D8100F
:101B500083F8D91083F8DA1083F8DB1083F8DC10EF
:101B600083F8862083F8872083F8882083F87E20F6
:101B700083F8E60083F8E71083F8AD2083F8E820C7
:101B8000C3F8EC2083F8F020FF2083F8F100C02098
:101B9000C3F8F40083F8F220C3F8FC00C3F8001186
:101BA000C3F80421C3F80821C3F80C2183F81021DD
:101BB00083F81121C3F8182183F81C2183F81D2113
:101BC000C3F8202183F8242183F8252183F82621D6
:101BD000C3F8282183F82C2183F82D2170BC70478D
:101BE000F010002008B5044B18689FED040A00218E
:101BF0000BF092FE08BD00BFF010002000000000B6
:101C000008B50CF027FE01200CF038FDFFF7FCFEB4
:101C100015F054FE0D4CA4F8B000642001F07AFCDD
:101C2000FFF7E0FF11F04EFD11F060FF12F002FB34
:101C300003F0EAF812F004F803F0E6F863236373A4
:101C4000002000F045F90EF087F9FCE7F0100020C5
:101C5000034A936823F07843194308439060704720
:101C60000038024010B4214B9B6803F00C03042B96
:101C700005D0082B06D0EBB91D4B03601CE01C4BB4
:101C8000036019E0194B5A685B6803F03F03174A79
:101C90005268C2F388121649B1FBF3F303FB02F258
:101CA000124B5B68C3F3014301335B00B2FBF3F3F8
:101CB000036001E00E4B03600C4A93680D49C3F3C7
:101CC0000313CC5C0368E34043609468C4F382244C
:101CD0000C5D23FA04F484609268C2F342328A5C99
:101CE000D340C3605DF8044B704700BF003802402A
:101CF0000024F40054ED020821B1054A136B184387
:101D000010637047024A136B23EA000010637047A8
:101D10000038024021B1054A536B184350637047A5
:101D2000024A536B23EA00005063704700380240B8
:101D300021B1054A936B184390637047024A936B35
:101D400023EA0000906370470038024021B1054A41
:101D5000136C184310647047024A136C23EA0000A6
:101D6000106470470038024021B1054A536C184393
:101D700050647047024A536C23EA00005064704775
:101D80000038024021B1054A136A184310627047B7
:101D9000024A136A23EA00001062704700380240CA
:101DA00021B1054A536A184350627047024A536A88
:101DB00023EA00005062704700380240704700BFBD
:101DC00008B50A46C1F3002141EA40013420C9B2F6
:101DD000D2B20CF03FF908BD10B52F302E2898BFB5
:101DE0002F207F2828BF7F200446154B93F878309A
:101DF000DBB2012B1BD1124B93F82C3113F0FF0FE8
:101E00000BD10F4B93F82C3113F0FF0F0AD10C4B71
:101E100093F81D3113F0040F04D003200021FFF7C5
:101E2000CFFF08E003207821FFF7CAFF03E003207B
:101E30007821FFF7C5FF0220A1B2FFF7C1FF10BD57
:101E4000F010002038B504460D460F200021FFF7A2
:101E5000B7FFD8BB1F21FFF7B3FF01201F21FFF7FA
:101E6000AFFF0020FFF7B8FF04201221FFF7A8FF03
:101E700005200021FFF7A4FF06206221FFF7A0FF45
:101E800025B907200221FFF79BFF03E007200E2161
:101E9000FFF796FF4BF680339C4204D108200021C7
:101EA000FFF78EFF0EE0B4F5FA4F04D10820182199
:101EB000FFF786FF06E0B4F5FA5F03D108200C2196
:101EC000FFF77EFF09200121FFF77AFF38BD00BF31
:101ED00008B520B105200821FFF772FF08BD0520D5
:101EE0000021FFF76DFF08BD30B585B005464FF402
:101EF00000400121FFF72AFF0E4C20460BF0EAFBC1
:101F000002950023ADF80230ADF80430ADF80C3086
:101F10004FF40072ADF80020ADF806302046694657
:101F20000BF02CFC4FF0402069460BF0B9FC05B0DB
:101F300030BD00BF003C0040F0B583B04FF4E0532B
:101F4000009302268DF804608DF8056000248DF85A
:101F500006408DF80740204D2846694601F0A2FE54
:101F60004FF4004300938DF804608DF805608DF800
:101F700006408DF80740194F3846694601F092FE39
:101F80004FF40073009303238DF805308DF804603F
:101F90008DF806408DF807402846694601F082FE1C
:101FA0004FF080404FF02051FFF752FE38460F218E
:101FB000062201F0C7FE28460A21062201F0C2FED1
:101FC00028460C21062201F0BDFE28460B210622E0
:101FD00001F0B8FE03B0F0BD00080240000002406E
:101FE00038B504460D46FFF7A7FF2046FFF77CFFF4
:101FF00020462946FFF726FF002038BD08B540F4EB
:1020000080710020FFF7DCFE08BD00BF38B5414BF2
:1020100093F8783013F0FF0F11D10020FFF7DCFEAA
:102020000020FFF7EBFF04201221FFF7C9FE062076
:102030006221FFF7C5FE0122364B5A7638BD0020DB
:10204000FFF7CAFE344B03F62C22126803F54363F4
:102050001A60304B93F87A30DBB2022B51D12D4B02
:1020600093F8AF3013F0FF0F4BD038BD294B93F8E6
:102070002C3138BD2846FFF7AFFE631E13F0FF0476
:10208000F8D1264B00BF013BFCD1224B93F8A13085
:1020900013F0FF0F2FD11F4B93F8A230DBB2322B7E
:1020A0000FD91C49012381F8AE3091F8A230A3F179
:1020B00023021B4B83FB0203A3EBE273C1F8A430A2
:1020C00008E0144B002283F8AE2093F8A220D2B28D
:1020D000C3F8A4200F4B93F8AE3013F0FF0F4FF06E
:1020E00004000CBF14211521FFF76AFE06206121B0
:1020F000FFF766FE38BD074B93F8AC00FFF77EFF95
:1021000038BD044B93F8AF3013F0FF0FAED1082465
:102110000025AFE7F0100020E8AF002040420F009C
:102120005655555510B4436823F0407222F480721E
:102130000B6813430A7943EA022343608468CA6840
:102140000B691A438B681A43094B234013434A799E
:1021500043EA42038360C36A23F470020B7D013BB0
:10216000DBB242EA0353C3625DF8044B704700BF21
:10217000FDF7FFC000230360037143718360C360F8
:10218000036101230375704710B4084C6268084B63
:10219000134041680268114382681143C2680A43D0
:1021A000134363605DF8044B704700BF0023014098
:1021B000E030FCFF21B1836843F001038360704786
:1021C000836823F001038360704700BF70B409295E
:1021D0000CD9C668A1F10A0404EB44040725A54004
:1021E00026EA0505A3402B43C36009E0056901EB1E
:1021F00041060724B44025EA0404B34023430361A5
:10220000062A0BD8446B013A02EB82021F2393404B
:1022100024EA030391401943416318E00C2A0BD8C8
:10222000046B073A02EB82021F23934024EA030364
:102230009140194301630AE0C46A0D3A02EB82023D
:102240001F23934024EA030391401943C16270BCE9
:10225000704700BF836843F080438360704700BFCE
:10226000C06C80B2704700BF70B506460B4D0224AB
:10227000284621460BF04AFB0028F9D00748314692
:102280000BF036FB054D0124284621460BF03EFBA2
:102290000028F9D001480BF027FB70BD0038004042
:1022A00070B541F20104124E022501E0013C1BD041
:1022B000304629460BF02AFB0028F7D00C480021B5
:1022C0000BF016FB41F20104094E012501E0013C2F
:1022D0000CD0304629460BF019FB0028F7D00448F3
:1022E0000BF002FBC0B270BDFF2070BDFF2070BDBF
:1022F0000038004030B583B00425009501238DF8E7
:10230000043000238DF806308DF807308DF8053045
:10231000034C2046694601F0C5FC658303B030BD1F
:10232000000C02402DE9F04788B04FF480400121B5
:10233000FFF70CFD02268DF81C6000258DF81E505D
:102340004FF003098DF81D9008AC4FF4005344F88A
:10235000083DDFF8CCA05046214601F0A3FC4FF029
:102360000808CDF818802B4F3846214601F09AFC1A
:10237000042306933846214601F094FC50460D2173
:10238000052201F0DFFC38463146052201F0DAFC77
:1023900038464946052201F0D5FCDFF888904846CA
:1023A0000BF098F9ADF80450ADF80850ADF80A609C
:1023B0000127ADF80C704FF40073ADF80E30ADF896
:1023C0001080ADF812504FF48273ADF806304846D5
:1023D00001A90BF0B1F9484639460BF045FA8DF8E2
:1023E0001C708DF81E508DF81D604FF480550695B9
:1023F000094E3046214601F055FCCDF818800748BB
:10240000214601F04FFC3046294601F097FC08B008
:10241000BDE8F0870008024000100240000C0240B6
:10242000000402400038004030B583B0154C20460F
:1024300000210BF019FA20460BF04CF900238DF81F
:1024400004308DF8053002AC4FF4005344F8083DD9
:102450000D48214601F026FC082300930B4D284629
:10246000214601F01FFC042300932846214601F079
:1024700019FC4FF4805300930548214601F012FCEB
:1024800003B030BD003800400004024000080240A4
:1024900000100240F0B583B04CF6B37300930227EE
:1024A0008DF8047003258DF8055000268DF8066020
:1024B0008DF80760434C2046694601F0F3FB204647
:1024C00031460C2201F03EFC204601210C2201F095
:1024D00039FC204604210C2201F034FC2046052161
:1024E0000C2201F02FFC204607210C2201F02AFCCF
:1024F000204608210C2201F025FC204609210C224F
:1025000001F020FC20460A210C2201F01BFC204691
:102510000B210C2201F016FC20460E210C2201F0AA
:1025200011FC20460F210C2201F00CFC4FF68073A9
:1025300000938DF804708DF805508DF806608DF8C5
:102540000760214D2846694601F0ACFB284607216B
:102550000C2201F0F7FB284608210C2201F0F2FBC7
:10256000284609210C2201F0EDFB28460A210C2205
:1025700001F0E8FB28460B210C2201F0E3FB284682
:102580000C210A4601F0DEFB28460D210C2201F049
:10259000D9FB28460E210C2201F0D4FB28460F213E
:1025A0000C2201F0CFFB0823009301238DF80430A7
:1025B0008DF806608DF805702046694601F072FBC3
:1025C00003B0F0BD000C02400010024010B5074CF3
:1025D0002046082101F0B2FB2046082101F0B0FBA3
:1025E0002046082101F0AAFB10BD00BF000C0240EC
:1025F00010B596B001200146FFF79AFB0323009324
:1026000000240194092302930394049405940694EE
:1026100007940894099410230A930B940C940D9436
:102620000E940F944FF480531093119412941394BA
:10263000CDF850D0CDF854D007A801F0BBFA204611
:10264000012101F01BFB16B010BD00BF38B50546D7
:102650000A4C20464FF4805101F072FB7020FFF7C6
:1026600003FE0020FFF700FE2846FFF7FDFD204691
:102670004FF4805101F062FB38BD00BF00100240F2
:1026800038B505460A4C20464FF4805101F058FBFE
:102690007220FFF7E9FD280AFFF7E6FDE8B2FFF731
:1026A000E3FD20464FF4805101F048FB38BD00BFE8
:1026B0000010024008B57220FFF7D6FD08BD00BF2C
:1026C00010B50446074B93F8543E13F0FF0F06D0A5
:1026D000000AFFF7C9FDE0B2FFF7C6FD10BD024BCF
:1026E000188010BD088A00200000026038B50D4D2A
:1026F00028464FF4805101F023FB7320FFF7B4FD0F
:10270000FFF7CEFDFFF7CCFD000200F47F44FFF79A
:10271000C7FD204384B228464FF4805101F00EFBE0
:10272000204638BD0010024010B50C46094B93F806
:10273000543E13F0FF0F06D0C0B2FFF787FF2046CC
:10274000FFF79EFF10BD4FF0C043188003F5003324
:10275000198010BD088A002010B504462020FFF71C
:10276000E3FF21202146FFF7DFFF10BD08B50A4B2C
:1027700093F8543E13F0FF0F05D0C0B2FFF766FF89
:10278000FFF7B4FF08BD4FF0C043188003F50033D6
:10279000188880B208BD00BF088A002038B50446FA
:1027A00000200146FFF7D8FF124B93F8543E13F078
:1027B000FF0F14D02220FFF749FF4FF480520E4B39
:1027C0005A83FFF777FF4FF4C8352046FFF778FFAD
:1027D000013DFAD14FF48052074B1A8338BD2222B3
:1027E0004FF0C0431A804FF4C833044A1480013BB1
:1027F000FCD138BD088A00200010024000000260B1
:1028000008B50B4B93F8543E13F0FF0F0AD022206B
:10281000FFF71CFF07484FF4805101F091FAFFF7D2
:1028200049FF08BD22224FF0C0431A8008BD00BFF7
:10283000088A0020001002402DE9F84F04460F4698
:1028400015469846BDF82860FFF786FFB8F1010FDE
:1028500003D0A846CDB9BDE8F88FFFF7D1FF2F46CA
:1028600035B100243046FFF72BFF0134BC42F9D1CB
:10287000164B93F8543E13F0FF0F24D014484FF436
:10288000805101F05BFABDE8F88F0025DFF83C903D
:10289000DFF83CB04FF4805AFFF7B2FF3046FFF745
:1028A0000FFF99F8543E13F0FF0F03D058465146DE
:1028B00001F044FA0134A4B220463946FFF74CFF38
:1028C00001354545E8D1BDE8F88F00BF088A0020F2
:1028D00000100240A2B32DE9F84F804689461E46FB
:1028E00017464FEA520B00252C46DFF85CA008EB98
:1028F000040080B24946FFF72FFFFFF781FFF3087E
:10290000B008400140EAC320184380B2FFF7D8FE68
:102910009AF8543E13F0FF0F04D00A484FF4805148
:1029200001F00CFA0135082D05D1A3458CBF043602
:10293000043EB6B200250134BC42D8D1BDE8F88FC0
:10294000704700BF00100240088A00202DE9F041C6
:1029500082B00746884614461E46BDF820500095B2
:102960001A460023FFF768FF009538464146224685
:102970000123FFF761FFB819621C009580B2414640
:1029800092B20123FFF758FF08EB04010095384687
:1029900089B232460023FFF74FFF02B0BDE8F08155
:1029A0002DE9F04182B080460F4616461C46BDF820
:1029B000205000951A460023FFF73EFF0095404641
:1029C000394632460123FFF737FF08EB0400009534
:1029D00080B2394632460123FFF72EFF02B0BDE830
:1029E000F08100BF2DE9F04782B0BDF828705D1E70
:1029F000ADB28BB1914688460646013500244FF0B2
:102A0000010A3019009780B241464A465346FFF703
:102A100013FF0134AC42F4D102B0BDE8F08700BF2F
:102A20002DE9F04F89B0804604910393BDF84830FA
:102A30000293139F97F804A03B680693203AFB8803
:102A400003FB02F35B000793FFF786FEFB88002B76
:102A500058D02E4BA3FB0A2303F0F803802202FA7E
:102A600003F60025DFF8ACB03FE00024069B079A90
:102A700003EB0209FFF7C4FE39F815200123A34038
:102A8000134046FA04F10A4203D1BAF10C0F04D9FB
:102A900035E033B9BAF10C0F03D90298FFF710FEF5
:102AA00002E00398FFF70CFE9BF8543E13F0FF0F73
:102AB00004D017484FF4805101F040F908F10100AB
:102AC000204480B20199FFF747FE0134BB88A3423E
:102AD000D0D8049B591C059B0B44404699B2FFF784
:102AE0003BFE0135FB88AB420CD9ABB20593049A8F
:102AF00013449BB20193BB88002BB6D1E9E7002BAE
:102B0000CBD0CEE709B0BDE8F08F00BFABAAAAAA30
:102B100000100240088A00202DE9F04F85B00446DD
:102B20000F4615469846BDF838909DF83CB00BF11D
:102B3000FF33032B09D8DFE803F00A0204061D4E19
:102B400006E01D4E04E01D4E02E01D4E00E01D4E4D
:102B50004FF0000ACDF80CA015F8012BCDF800902D
:102B60000196204639464346FFF75AFFB388C3F51E
:102B7000A07294420CDA1C44A4B2BBF1040F12D12F
:102B80002B78392B8CBF04F1FF34023CA4B20AE04D
:102B9000F388C3F5A072974203DA1F44BFB25446CC
:102BA00001E05746039C2B78002BD5D105B0BDE83A
:102BB000F08F00BFA4EF02089CEF02088CEF020820
:102BC00094EF0208ACEF02082DE9F04F89B00290B3
:102BD000039105920693BDF84830002B14BF7F2364
:102BE000012303F13E0BBC330493C54DDFF81CA356
:102BF000029B33F8024B0293039A32F8023B039292
:102C00003F2C28BF3F243F2B28BF3F230193A342E3
:102C100080F0BE80059B2BBBB5F8343E9BB25B4574
:102C20000AD00123194603F5E36205EB42029288BC
:102C300092B25A4510D100E0002101F5E36305EBA3
:102C40004303B3F804B01FFA8BFBAE4BD3F8B87054
:102C5000BFB24FF0010907E00133072BE2D14FF07B
:102C6000000901E04FF00009C4F1D1081FFA88F80B
:102C700095F8543E13F0FF0F47D04FF48056A24B07
:102C80005E837020FFF7F0FA0020FFF7EDFA2020B6
:102C9000FFF7EAFA9C4B1E835E837220FFF7E4FA8B
:102CA0004FEA1820FFF7E0FA5FFA88F0FFF7DCFA46
:102CB000954B1E835E837020FFF7D6FA0020FFF746
:102CC000D3FA2120FFF7D0FA8F4B1E835E83722048
:102CD000FFF7CAFACBF30720FFF7C6FA5FFA8BF0CB
:102CE000FFF7C2FA884B1E835E837020FFF7BCFAA1
:102CF0000020FFF7B9FA2220FFF7B6FA824B1E83B5
:102D00005E837220FFF7B0FA1AE158464146FFF79A
:102D100023FDFFF775FD13E108EB04039BB2D6B961
:102D2000BBF1000F15D1B5F8422E92B293420BD0F1
:102D3000B5F8442E92B29A4206D0B5F8462E92B219
:102D40009A4218BF002706D16E4BD3F8B870BFB2B5
:102D500001E05F46FFE795F8543E13F0FF0F07D000
:102D6000C7F30720FFF780FAF8B2FFF77DFA01E01A
:102D7000AAF8007001344C45CED1DDF81CB095F8AE
:102D8000543E13F0FF0F03D04FF480535E4A138379
:102D9000019B002B00F0CB80069B1BBBB5F8343E9B
:102DA0009BB25B450AD00123194603F5E36205EBAC
:102DB0004202928892B25A450FD100E0002101F5FB
:102DC000E36305EB4303B3F804B01FFA8BFB4D4BF1
:102DD000D3F8B870BFB2012605E00133072BE3D169
:102DE000002600E00026019BC3F1D104A4B295F8AF
:102DF000543E13F0FF0F50D04FF48058424BA3F8CD
:102E00001A807020FFF730FA0020FFF72DFA2020FB
:102E1000FFF72AFA3C4BA3F81880A3F81A80722017
:102E2000FFF722FA200AFFF71FFAE0B2FFF71CFAB9
:102E3000354BA3F81880A3F81A807020FFF714FA16
:102E40000020FFF711FA2120FFF70EFA2E4BA3F80E
:102E50001880A3F81A807220FFF706FACBF3072038
:102E6000FFF702FA5FFA8BF0FFF7FEF9264BA3F8A3
:102E70001880A3F81A807020FFF7F6F90020FFF7FA
:102E8000F3F92220FFF7F0F91F4BA3F81880A3F8FD
:102E90001A807220FFF7E8F905E058462146FFF74F
:102EA0005BFCFFF7ADFC4FF0D108DDF81890D6B908
:102EB000B9F1000F15D1B5F8423E9BB2A3420BD039
:102EC000B5F8443E9BB2A34206D0B5F8463E9BB24D
:102ED000A34218BF002706D10A4BD3F8B870BFB27F
:102EE00001E04F46FFE795F8543E13F0FF0F0FD077
:102EF000C7F30720FFF7B8F9F8B2FFF7B5F909E013
:102F0000088A0020F010002000100240000002603B
:102F1000AAF800700134A4B24445C8D195F8543ED3
:102F200013F0FF0F03D04FF480530E4A13830BF1BD
:102F3000010B1FFA8BFB049B5B453FF759AE0DE07D
:102F4000661E019BF61AB6B201360024CDF81CB0FD
:102F500033464E46DDF814B09946DDE609B0BDE8CB
:102F6000F08F00BF0010024010B50020FFF7FEFBFD
:102F70000446D248214600F099FD002C00F0A182C1
:102F800049F220339C4240F0F080CD4800F08EFDA5
:102F9000E5204FF40041FFF7C7FB00200121FFF7B8
:102FA000C3FB01204FF48071FFF7BEFB02204FF4FA
:102FB000E061FFF7B9FB032041F23001FFF7B4FBFA
:102FC00004200021FFF7B0FB082040F20221FFF7A8
:102FD000ABFB09200021FFF7A7FB0A200021FFF728
:102FE000A3FB0C200021FFF79FFB0D200021FFF722
:102FF0009BFB0F200021FFF797FB10200021FFF71C
:1030000093FB11200021FFF78FFB12200021FFF717
:103010008BFB13200021FFF787FB102041F2B071DA
:10302000FFF782FB112040F23711FFF77DFB1220E2
:1030300040F23911FFF778FB13204FF4E851FFF706
:1030400073FB29201321FFF76FFB20200021FFF7DE
:103050006BFB21200021FFF767FB30200721FFF7E2
:1030600063FB31200721FFF75FFB32200721FFF7C9
:103070005BFB35200721FFF757FB36200721FFF7C1
:1030800053FB37204FF4E061FFF74EFB38204FF43D
:10309000E061FFF749FB39204FF4E061FFF744FBA3
:1030A0003C204FF4E061FFF73FFB3D204FF4F85127
:1030B000FFF73AFB50200021FFF736FB5120EF21AC
:1030C000FFF732FB52200021FFF72EFB532040F286
:1030D0003F11FFF729FB60204FF42741FFF724FB46
:1030E00061200121FFF720FB6A200021FFF71CFB74
:1030F00080200021FFF718FB81200021FFF714FB3F
:1031000082200021FFF710FB83200021FFF70CFB3A
:1031100084200021FFF708FB85200021FFF704FB36
:1031200090201021FFF700FB92200021FFF7FCFA0E
:1031300093200321FFF7F8FA95204FF48871FFF7E9
:10314000F3FA97200021FFF7EFFA98200021FFF70C
:10315000EBFA032041F23001FFF7E6FA072040F2D4
:103160007311FFF7E1FA002010BD45F208439C42BD
:1031700040F0AA80534800F099FC01200021FFF79D
:10318000D3FA02204FF4E061FFF7CEFA032041F2B8
:103190003001FFF7C9FA04200021FFF7C5FA082023
:1031A00040F20721FFF7C0FA09200021FFF7BCFA1F
:1031B0000A200021FFF7B8FA0C200021FFF7B4FA2B
:1031C0000D200021FFF7B0FA0F200021FFF7ACFA25
:1031D000072040F20111FFF7A7FA102041F2B06179
:1031E000FFF7A2FA11200121FFF79EFA1720012113
:1031F000FFF79AFA12204FF49C71FFF795FA13200B
:103200004FF40061FFF790FA29200921FFF78CFAAB
:103210002A200921FFF788FAA4200021FFF784FA69
:1032200050200021FFF780FA5120EF21FFF77CFAB0
:1032300052200021FFF778FA532040F23F11FFF7A8
:1032400073FA60204FF41C51FFF76EFA61200321DE
:10325000FFF76AFA6A200021FFF766FA8020002152
:10326000FFF762FA81200021FFF75EFA8220002139
:10327000FFF75AFA83200021FFF756FA8420002135
:10328000FFF752FA85200021FFF74EFA9020132114
:10329000FFF74AFA92200021FFF746FA9320032114
:1032A000FFF742FA95204FF48871FFF73DFA0720A7
:1032B00040F27311FFF738FA002010BD64ED0208E8
:1032C00078ED020890ED020849F225339C4204D0C3
:1032D00049F228339C4240F0F6807C4800F0E6FB3F
:1032E000E7201021FFF720FA00200121FFF71CFA48
:1032F00001200021FFF718FA02204FF4E061FFF7E8
:1033000013FA032041F23001FFF70EFA04200021E6
:10331000FFF70AFA082040F20721FFF705FA092013
:103320000021FFF701FA0A200021FFF7FDF90C2028
:103330000121FFF7F9F90D200021FFF7F5F90F2022
:103340000021FFF7F1F910200021FFF7EDF911201E
:103350000721FFF7E9F912200021FFF7E5F9132013
:103360000021FFF7E1F9102041F29051FFF7DCF95D
:10337000112040F22721FFF7D7F912209C21FFF7F7
:10338000D3F913204FF4C851FFF7CEF92920232198
:10339000FFF7CAF92B200E21FFF7C6F920200021E4
:1033A000FFF7C2F921200021FFF7BEF930200721E5
:1033B000FFF7BAF9312040F20771FFF7B5F9322073
:1033C0000621FFF7B1F9352040F20471FFF7ACF99F
:1033D000362041F60471FFF7A7F937200421FFF7E3
:1033E000A3F938200021FFF79FF9392040F2067138
:1033F000FFF79AF93C2040F20171FFF795F93D2063
:103400000F21FFF791F950200021FFF78DF951208E
:10341000EF21FFF789F952200021FFF785F95320AA
:1034200040F23F11FFF780F960204FF42741FFF78A
:103430007BF961200121FFF777F96A200021FFF76E
:1034400073F980200021FFF76FF981200021FFF739
:103450006BF982200021FFF767F983200021FFF735
:1034600063F984200021FFF75FF985200021FFF731
:103470005BF990201021FFF757F992200021FFF708
:1034800053F993200321FFF74FF995204FF48871EA
:10349000FFF74AF997200021FFF746F9982000210D
:1034A000FFF742F9072040F23311FFF73DF92020E2
:1034B0000021FFF739F921200021FFF735F900201D
:1034C00010BD012010BD002010BD00BFA8ED0208F6
:1034D00010B5FEF70FFF01220D4B83F8542EFEF7B7
:1034E00021FFFFF773F8FFF73FFD78B1FEF79CFF70
:1034F0000024074B83F8544EFEF7CCFFFFF778F813
:10350000FFF764F8FFF730FD204610BD10BD00BF87
:10351000088A0020F0B59DB006460020FFF73EF96E
:1035200002AC704D0FCD0FC495E8030044F8040BB6
:10353000217000240094019446203C2102AA4FF6F9
:10354000FF73FFF7E9FA02AD674F0FCF0FC597E89A
:10355000070003C52A70009401943C20502102AA60
:103560004FF6FF73FFF7D8FA0094DA23019302A80D
:103570005E492246234600F035FA009401946E20FD
:10358000642102AA4FF6FF73FFF7C6FA02AD584F47
:103590000FCF0FC597E8070085E807000094019456
:1035A0003620C32102AA48F21043FFF7B5FA02AD54
:1035B000504F0FCF0FC597E80F0007C525F8023B06
:1035C0001B0C2B70009401942A20D22102AA48F2ED
:1035D0001043FFF7A1FA02AD474F0FCF0FC597E891
:1035E000070003C52A80009401943C20E12102AA2F
:1035F00048F21043FFF790FA83201BA90BF056FB0B
:103600009DF86C309BB902AC3C4D0FCD0FC495E8D2
:10361000030044F8040B2170002300930193502011
:103620008C2102AA4CF21863FFF776FA12E002AC82
:10363000334D0FCD0FC495E8030044F8040B2170FF
:1036400000230093019350208C2102AA4AF2555383
:10365000FFF762FA2B4B93F8543E13F0FF0F02ACC6
:1036600014BF294D294D0FCD0FC42B6824F8023B00
:103670001B0C23700023009301935820AA2102AA57
:103680004CF21863FFF748FA214BB3F8B0309BB205
:10369000082B11D01E4BB3F8B02002A81D4992B2DE
:1036A00000F0A0F90023009301933C209B2102AA83
:1036B0004CF21863FFF730FA0422174B1A830023E9
:1036C0001B934EB90BE000BF013BFCD11B9B0133A8
:1036D0001B939E4201D802E0104A1346F3E71DB047
:1036E000F0BD00BFC0ED0208D8ED0208F4ED0208FD
:1036F00004EE020820EE020840EE02085CEE02082A
:1037000074EE0208088A00208CEE0208A0EE02087F
:10371000F0100020B4EE0208000C024040420F00FE
:1037200010B40B7843B1024602F8013B141A11F8A9
:10373000013F002BF8D100E0002420465DF8044B47
:10374000704700BF70B504461D46561E092B03D8AE
:10375000002E0BDC00260FE00D4BA3FB05233246A9
:10376000DB08FFF7EFFF0646201805E0501E204457
:1037700004F8011B8442FBD1054BA3FB0523DB08A6
:1037800003EB8303A5EB430330330370701C70BD60
:10379000CDCCCCCC70B50446002B04DA5D42561E6D
:1037A000092D05D82EE01D46013A092B09D824E041
:1037B0001D4BA3FB0523DB0832465B42FFF7EAFF04
:1037C00006E01948A0FB03032046DB08FFF7E2FFF1
:1037D00004441DE01046264606F8011B0138002867
:1037E000FADC013A22EAE272501C0444002B0FDAA0
:1037F0002D2304F8013B01300AE0002AD8BF002045
:1038000006DDE7E7023A002AD8BF0020F0DDE1E755
:10381000054BA3FB0523DB0803EB8303A5EB430365
:1038200030332370013070BDCDCCCCCCF0B583B03B
:1038300004461F46089D561E2B0904D1002E0ADCA3
:10384000034600260DE0009332463B46FFF7EEFFAD
:103850000646231805E0531E034404F8011B9C424E
:10386000FBD105F00F02092A03D8154630351D702B
:1038700009E027B105F00F0537351D7003E005F0AD
:103880000F0557351D70701C03B0F0BD2DE9F04FCA
:1038900083B00F46064608B10021017000254FF0A5
:1038A000010AA8464FF030097CE0252904D00132F6
:1038B00031700135013675E05178252904D1317018
:1038C0000232013501366DE0302919BF541C202128
:1038D000941C494694F800E0AEF13002D2B2092AB5
:1038E0000FD8424602EB82020EEB4202303A02F05F
:1038F000FF0214F801EFAEF13000C0B20928F1D98F
:1039000000E04246501987423CBF7A1BD2B2AEF16A
:10391000580EBEF1200F56D8DFE80EF02B55555546
:10392000555555555555553D1155555555115555E7
:10393000555555555555553555195555210003F1D2
:10394000040B30461B68FFF725FF5B4627E003F1B9
:10395000040B30461B68FFF7F5FE5B461FE003F1E2
:10396000040B1B68009330464346FFF75FFF5B463E
:1039700015E003F1040B1B68009330465346FFF734
:1039800055FF5B460BE003F1040B30461968FFF767
:10399000C7FE5B4603E01A68327004335046621C6F
:1039A00006440544117819B1BD42FFF47EAF05E02D
:1039B000AF4203D900233370284606E0002306F8FF
:1039C000013C681E01E04FF0FF3003B0BDE8F08F0E
:1039D00010B50C4613464FF496712246FFF756FF7A
:1039E00010BD00BF0EB400B582B003AA52F8041B8C
:1039F0000192FFF7EDFF02B05DF804EB03B07047F2
:103A0000054B1B689A688A4204D0DB688B4218BF5A
:103A10004FF0FF30704700BF3806002070B50446F5
:103A2000007868B10E4600253146FFF7E9FFB0F196
:103A3000FF3F07D0013514F8010F0028F4D100E052
:103A40000025284670BD00BFF0B5D5B006468E46AD
:103A500017466C460D4D0FCD0FC40FCD0FC42B680C
:103A6000236009A871463A46FFF7B2FFB0F5967F8A
:103A700006DB074B1B686846D968FFF7CFFFFEE7F8
:103A800009A83146FFF7CAFF55B0F0BDD0EE0208D5
:103A90003806002008B503460A46034909688868C5
:103AA0001946FFF7D1FF08BD380600200FB400B556
:103AB00083B004A951F8040B0191FFF7EBFF03B0A9
:103AC0005DF804EB04B0704708B54FF08040012169
:103AD0000BF028FA88B14FF0804001210BF02EFA4C
:103AE000064B1B6823B1054A1368013B136008BDF0
:103AF0004FF0804000210BF007FA08BD6C06002053
:103B000012230B80004870475000002004230B80D4
:103B1000004870476400002008B50A4620B90548EF
:103B2000054903F0C5FA03E00448034903F0C0FA6D
:103B3000014808BDF4EE020868C4002018EF02082E
:103B400010B50A46034C0448214603F0B1FA20465A
:103B500010BD00BF68C400203CEF020808B50A464B
:103B600020B90548054903F0A3FA03E004480349D6
:103B700003F09EFA014808BD50EF020868C4002017
:103B800060EF020808B50A460248034903F090FABC
:103B9000014808BD70EF020868C4002008B50A4655
:103BA0000248034903F084FA014808BD7CEF02088B
:103BB00068C4002010B40168826843681A43C3686F
:103BC0001A4303691A4343691A4383691A43C36951
:103BD0001A43036A1A43436A1A43836A1A43C36A3D
:103BE0001A43036B13434FF0204242F8213083689D
:103BF000082B06D103689B0013441A6842F0400268
:103C00001A6001680131426B946913682343546858
:103C100043EA0413946843EA0423D46843EA044360
:103C2000146943EA0453526943EA02634FF02042A5
:103C300042F82130C36AB3F5804F14D10168826B1A
:103C4000906913680343506843EA0013906843EA9D
:103C50000023106943EA0053526943EA0263064AAB
:103C600042F8213005E002686FF07041024B43F8E2
:103C700022105DF8044B7047040100A039B18000A8
:103C800000F12040036843F00103036070478000A7
:103C900000F120400268024B13400360704700BFF0
:103CA000FEFF0F00F0B500220126032706FA02F3FB
:103CB0000C681C409C4237D10368540007FA04F595
:103CC000ED432B400360036891F804E00EFA04FE14
:103CD0004EEA030303600B79013BDBB2012B16D8DC
:103CE00083681D40856085684B79A3402B438360C2
:103CF00043681FFA82FE06FA0EF523EA05034360C5
:103D000045688B7903FA0EF39BB22B434360C3687B
:103D100095B26D0007FA05F523EA0503C360C5688F
:103D2000CB79A3402B43C3600132102ABED1F0BD32
:103D30000369194214BF01200020704701837047B6
:103D40004183704710B401F007039B00C90800EBE2
:103D50008100046A0F21994024EA01010162016A8D
:103D60009A40114301625DF8044B7047054B1B6993
:103D7000002B05DA034B044A5A6002F188325A607C
:103D8000704700BF003C024023016745024A1369A7
:103D900043F0004313617047003C02400E4BDB6868
:103DA00013F4803F12D10C4BDB6813F0100F0FD1CE
:103DB000094BDB6813F0EF0F0CD1074BDB6803F006
:103DC0000203002B14BF0720082070470120704712
:103DD0000520704706207047003C024000B583B0C4
:103DE00008238DF80730FFF7D9FF8DF807009DF8FD
:103DF0000730DBB2012B08D1FFF7D0FF8DF80700A9
:103E00009DF80730DBB2012BF6D09DF8070003B018
:103E10005DF804FB70B5054641B1012908D00229BF
:103E20000CBF4FF400764FF4407603E0002601E02B
:103E30004FF48076FFF7D2FF08281ED10F4C23697C
:103E400023F44073236123691E432661236923F011
:103E5000F8032361236943F002031D4325612369AD
:103E600043F480332361FFF7B9FF236923F0020392
:103E70002361236923F0F803236170BD003C0240F5
:103E800070B505460E46FFF7A9FF082813D10A4C66
:103E9000236923F440732361236943F4807323610E
:103EA000236943F0010323612E80FFF797FF236905
:103EB00023F00103236170BD003C024000207047E5
:103EC000064B1B680133B3F5006F02D0034A136041
:103ED00002E00022014B1A60002070479C0800207D
:103EE0000A4619B1002301339342FCD100207047E8
:103EF00010B5212816D0222825D020284BD12748BC
:103F00004C788A78130443EA04220B781343CA7866
:103F100043EA026303600B7903714B7943718B7938
:103F2000837138E01D4B1A680A701A68120A4A70C9
:103F30005A888A70DA78CA701A790A715A794A717D
:103F40009B798B7127E00C46154B93F8783013F072
:103F5000FF0F0ED10B78032B0BD1114B93F81C31B3
:103F600013F0FF0F14D101220D4B83F878200DF0D0
:103F7000DBFC0B4B93F87830DBB2012B0BD12378B1
:103F80004BB90022064B83F878200DF0CDFC02E0FF
:103F9000034B93F87830002010BD00BF9000002044
:103FA000F010002008B50248FFF780FD002008BD92
:103FB000842E030882B0454AD2F8883043F4700357
:103FC000C2F88830424B1A6842F001021A600021A0
:103FD00099601A6822F0847222F480321A603D4A95
:103FE0005A601A6822F480221A60D9600091019107
:103FF0001A6842F480321A601A46136803F40033D8
:104000000193009B01330093019B1BB9009BB3F507
:10401000A06FF2D12E4B1B6813F4003F14BF012395
:1040200000230193019B012B3AD1294B1A6C42F0DA
:1040300080521A6428490A6842F480420A609A68E9
:104040009A609A6842F400429A609A6842F4A052D8
:104050009A60224A5A601A6842F080721A601A46C0
:10406000136813F0007FFBD01D4B1A6842F4006206
:104070001A601A6842F480521A6040F205621A60AF
:10408000A3F580639A6822F003029A609A6842F06E
:1040900002029A601A46936803F00C03082BFAD1C7
:1040A0000B4B9A6822F400029A600E4AC3F88420EF
:1040B0001A6842F080621A601A46136813F0006FA3
:1040C000FBD0094A014B9A6002B0704700ED00E056
:1040D00000380240103000240070004010544007A7
:1040E000003C02408040007000000108036823F09B
:1040F000010303600023036043608360C3600361C6
:10410000212343613B4B984203D13D22103B9A60EF
:104110007047394B984204D14FF47462283B9A603F
:104120007047364B984204D14FF47412403B9A606A
:104130007047334B984204D14FF07462583B9A60F9
:104140007047304B984203D12F4A703BDA6070477A
:104150002E4B984203D12E4A883BDA6070472D4B94
:10416000984203D12C4AA03BDA6070472B4B98420F
:1041700004D14FF03D52B83BDA607047284B98426B
:1041800003D13D22103B9A607047264B984204D1E0
:104190004FF47462283B9A607047234B984204D1D5
:1041A0004FF47412403B9A607047204B984204D100
:1041B0004FF07462583B9A6070471D4B984203D190
:1041C000114A703BDA6070471A4B984203D1104A8B
:1041D000883BDA607047184B984203D10E4AA03BE7
:1041E000DA607047154B984203D14FF03D52B83B0F
:1041F000DA60704710600240286002404060024070
:1042000058600240706002403D000020886002401B
:10421000400F0020A060024000003D20B860024036
:104220001064024028640240406402405864024026
:104230007064024088640240A0640240B864024096
:1042400010B40268134B1340CC680A6814434A69DF
:1042500014438A691443CA6914430A6A14434A6AB4
:1042600014438A6A14434A6B14438A6B22431343F0
:104270000360436923F007020C6BCB6A23431343AB
:1042800043610B6943604B6883608B68C3605DF872
:10429000044B70473F801CF021B1036843F00103D9
:1042A00003607047036823F001030360704700BF99
:1042B00010B40B4A0B4B0C4CA04294BF184610464E
:1042C00011F0005F14BF4368036821F0F02121F072
:1042D0008211194214BF012000205DF8044B704781
:1042E00000640240006002400F64024010B4094ABA
:1042F000094B0A4CA04294BF1846104611F0005FCB
:1043000021F0F02121F0821114BFC16081605DF8BD
:10431000044B704700640240006002400F6402409A
:1043200011F0800F0ED032B1436943F08003436136
:1043300080290AD17047436923F0800343618029B3
:1043400009D1704780290CD02AB1036801F01E0101
:10435000194301607047036801F01E0123EA01015F
:10436000016070472DE9F84F4FF400100121FDF76F
:10437000C3FC32480021FFF78FFF3048FFF7B6FE3D
:104380002F4C002525602F4B6360A5604023E36020
:104390004FF6FE7BC4F810B065614FF4806AC4F834
:1043A00018A04FF40069C4F81C904FF40056266220
:1043B0004FF48078C4F824804FF40037A762E56298
:1043C00025636563A5631D482146FFF739FF1E4835
:1043D0000221012209F08EFA1C482946FFF75CFFF2
:1043E0001A48FFF783FE4FF08063E363184B2364A2
:1043F0006564A564C4F84CB02565C4F854A0C4F83D
:104400005890E665C4F860806766A566E56625672E
:1044100065670E4804F13C01FFF712FF0B481821B5
:104420000122FFF77DFF0B4B1E604FF04020012162
:104430000A4609F05FFABDE8F88F00BF88600240C5
:10444000700600200C3C0040003C004040600240F0
:104450000C40004000E100E0F8B50F461546194C4D
:10446000A067E167C4F88020A0602261164E304644
:104470002146FFF7E5FE6764E564144D284604F124
:104480003C01FFF7DDFE30460121FFF705FF28461E
:104490000121FFF701FF0E4B9B8B03F480639BB25E
:1044A0001BB90B48012109F0EDF94FF040239B8B1C
:1044B00003F480639BB223B94FF04020012109F03F
:1044C000E1F9F8BD700600208860024040600240BB
:1044D000003C004010B51D484FF08151FFF7E8FE49
:1044E000C0B11B4BD3F88020C2F34F02A3F8842045
:1044F00012B25400D86F2044C3F88800996F214449
:10450000C3F88C10002300F017FE10484FF08151C3
:10451000FFF7ECFE0D480F49FFF7CAFEA0B10C4BA8
:10452000D3F88020C2F34F02A3F88420D86FC3F8D9
:104530008800996FC3F88C1012B2012300F0FCFDC3
:1045400002480449FFF7D2FE10BD00BF40600240A0
:1045500070060020000010102DE9F84F2DED068B9D
:1045600000EBD0705FEA60097ED0B0EE409A5E4BFF
:1045700093ED008A0025DFF884A15C4CF7EE008AF9
:10458000DFED5B9ADFF878B19AF8AF3013F0FF0FE8
:1045900054D104EB850393ED008A04F65C43D3ED1C
:1045A000007A28EE278AB0EEC88AB4EEE98AF1EEE6
:1045B00010FA0ED5D3ED006A04F54662D2ED007A0A
:1045C00093ED007A66EEA77A77EE277AC3ED007A4C
:1045D00028E004F65C4898ED00AAD8F8000019F02D
:1045E000E7FD06460F461AEE100A19F0E1FD3AA360
:1045F000D3E9002319F030FE02460B463046394617
:1046000019F076FC1AF0C2F8C8F80000D8F80000DB
:1046100019F0CEFD32A3D3E900231AF099F808B1BE
:10462000C8F800B004F65C43D3ED007AF4EEE87A03
:10463000F1EE10FA06DBC3ED008A03E004F65C43FA
:10464000C3ED008A04F65C43D3ED007A67EE897A05
:1046500005F5237304EB8303C3ED007A01354D4563
:1046600092D1214B83ED008A224D1F4C6168224E6E
:10467000284606EB81014A4613F002FAA06806EBD1
:10468000800029464A4613F0FBF963684B44636097
:1046900003EB0902A260B3F59F7F02D9A3F5A073D3
:1046A0006360B2F59F7F03D9A2F5A0720E4B9A60AA
:1046B0000E4C04F523652046294622464B4616F04B
:1046C000EBFE04F58272104629464B4616F0E4FED6
:1046D000BDEC068BBDE8F88F9A9999999999B93FE5
:1046E000FCA9F1D24D62503F00070020E8AF002046
:1046F0000060EA46F0B100206C990020F010002024
:104700006F12833AAFF300802DE9F84F2DED048B43
:1047100007468846554BDB689BBB00EBD073C3F361
:104720004F031EB256B3002407EE906AF8EEE78AF4
:104730009FED4F9A4F4D07EE904AB8EE678A88EE8C
:10474000288A68EE097AB1EE008A27EE888AB0EEF0
:10475000480A16F0DBF904F5127305EB830383EDC9
:10476000010AB0EE480A16F069F904F5027305EB88
:10477000830383ED000A0134B442DCD101223B4BB8
:10478000DA60B8F1000F36D107EBD7777D10394CDE
:1047900004F6241704F5027A2046394652462B4681
:1047A00016F07AFE04F5827604F5026B04F543797F
:1047B000304659464A462B4616F06EFE04F582688E
:1047C0003046394642462B4616F066FE04F2145730
:1047D000204659463A462B4616F05EFE504649465C
:1047E00022462B4616F062FF4046394632462B469B
:1047F00016F0F4F935E007EBD7777F101E4D05F57D
:10480000026605F5827A2846314652463B4616F046
:1048100043FEA5F5827405F21C7B05F5027920465E
:1048200059464A463B4616F037FE05F54378204682
:10483000314642463B4616F02FFE05F58266284675
:10484000594632463B4616F027FE504649462A4610
:104850003B4616F02BFF4046314622463B4616F0BB
:10486000BDF9BDEC048BBDE8F88F00BF0007002048
:10487000DB0FC940E8AF0020ECB000202DE9F0418B
:1048800082B0A34BD3F800410122C3F80021A14913
:1048900081F8282A93F87F30DBB2052B00F27C8167
:1048A000DFE813F006009400DC00240165017001CC
:1048B0000A22994B1A82964B93F88030DBB2012B77
:1048C00005D1954A954B93612833D36164E1904BB0
:1048D00093F88030DBB2022B07D18F4A8F4B03F164
:1048E000540191617C33D36156E1894B93F8803058
:1048F000DBB2032B07D1884A884B03F1A8019161F1
:10490000D033D36148E1824B93F88030DBB2042B83
:1049100008D1814A814B03F1FC01916103F5927347
:10492000D36139E17A4B93F88030DBB2052B08D1A3
:10493000794A7A4B03F5A871916103F5BC73D36191
:104940002AE1734B93F88030DBB2072B08D1724A0F
:10495000724B03F5D271916103F5E673D3611BE1EC
:104960006B4B93F88030DBB2082B08D16A4A6B4B53
:1049700003F5FC71916103F50873D3610CE1644B9D
:1049800093F88030DBB2092B08D1634A634B03F5FF
:104990001371916103F51D73D361FDE05C4B93F8D6
:1049A0008030DBB20A2B08D15B4A5C4B03F52871DF
:1049B000916103F53273D361EEE0574A574B03F52B
:1049C0003D71916103F54773D361E5E00A22524BD3
:1049D0001A824F4B93F88130DBB2012B08D14E4A3B
:1049E0004E4B03F55271916103F55C73D361D3E0D3
:1049F000474B93F88130DBB2022B08D1464A474B34
:104A000003F56771916103F57173D361C4E0404BA5
:104A100093F88130DBB2042B08D13F4A3F4B03F5BA
:104A20007C71916103F58363D361B5E0384B93F8F2
:104A30008130DBB2052B08D1374A384B03F24441B1
:104A4000916103F26C43D361A6E0334A334B03F523
:104A50009361916103F59863D3619DE00A222E4B27
:104A60001A822B4B93F88230DBB2012B08D12A4AF1
:104A70002A4B03F2EC41916103F21453D3618BE0B2
:104A8000234B93F88230DBB2022B08D1224A234B0E
:104A900003F5A861916103F5AD63D3617CE01C4B24
:104AA00093F88230DBB2042B08D11B4A1B4B03F274
:104AB0009451916103F2BC53D3616DE0144B93F8B0
:104AC0008230DBB2052B08D1134A144B03F5BD61CC
:104AD000916103F5C263D3615EE00F4A0F4B03F2AD
:104AE0003C61916103F26463D36155E00A220A4B91
:104AF0001A82074B93F88330DBB2012B10D1064AA0
:104B0000064B03F5D261916103F5D763D36143E0AE
:104B1000F0100020E8AF002000070020902E0308CE
:104B2000A94B93F88330DBB2032B08D1A74AA84BDB
:104B300003F2E461916103F20C73D3612CE0A24BA8
:104B400093F88330DBB2042B08D1A04AA04B03F5C5
:104B5000E761916103F5EC63D3611DE09B4A9C4BD7
:104B600003F28C71916103F2B473D36114E0974A3C
:104B70000A231382964B03F5FC61916103F6080347
:104B8000D36109E0914A08231382914B03F6340163
:104B9000916103F65403D3618C4A02F12003E032A1
:104BA000002143F8041B9342FBD1884B03F1200200
:104BB0005A61854B93F8F830DBB21F2B09D9824B31
:104BC00093F8F830DBB2802B05D87F4B93F8F85080
:104BD00002E0602500E060257E4E35807E4BB360AC
:104BE0007E4B7360784B93F8F230DBB207EE903A6D
:104BF000FBEEEF7AB0EE007A77EE877AF2EE040AF7
:104C0000B0EE600AC7EEA00A17F0AAF9F7EE007A34
:104C100087EE800A86ED030A714B03F500610022DE
:104C200043F8042B8B42FBD16C4B6B4A03F5407766
:104C30000020654E43F8040BD6F80C1101B110604A
:104C40000432BB42F6D14023009362482946624AAF
:104C5000624B14F0B5F85C4BD3F8F430B3F5007F39
:104C600004D8594BD3F8F4302F2B03D8C022564B1D
:104C7000C3F8F4205B4D40262E80DFF87881C5F81C
:104C80000880594F6F60504B93F8F930DBB207EE54
:104C9000903AF8EE677AB7EE000A77EE807A9FEDE9
:104CA000537AC7EE877A37EE800A17F0DDF8009660
:104CB0002846314642463B4614F082F84C4B03F5F9
:104CC0000061002243F8042B8B42FBD1464B494A3A
:104CD00003F5407600203C4D43F8040BD5F80C1149
:104CE00001B110600432B342F6D1374BD3F8FC3037
:104CF000B3F5806F04D8344BD3F8FC305F2B03D866
:104D0000C022314BC3F8F4202F4B93F87F30DBB235
:104D1000052B0ED00422384B83F8682C2B4A2C4BE1
:104D200003F67801C2F8E41003F68803C2F8F03005
:104D30000DE00222304B83F8682C244A244B03F602
:104D4000C801C2F8E41003F6D803C2F8F0302A4BC9
:104D500093F8682CD2B207EE902AF8EE677A03F542
:104D60004762C2ED007A93F8682CD1B24FF4A0727A
:104D7000B2FBF1F2C3F86C2C93F8681C134A82F86A
:104D8000E0100421A2F8E2101C4DC2F8E85093F89C
:104D9000681C82F8EC1093F8681CC8B2102191FBD3
:104DA000F0F1A2F8EE101649C2F8F41000222A60C1
:104DB0000A600022C3F87C2C83F8282A024BC3F82F
:104DC000004102B0BDE8F081F01000200007002093
:104DD000902E0308AC9E0020EC5C002000410020D7
:104DE000C09F0020D0AF0020004400200080BB44C2
:104DF00014480020EC5F0020E8AF0020DC9E00207B
:104E0000585900200000000070B52DED028B09F00C
:104E1000CFF9B54B012283F8282AB44A002111604A
:104E20005160D1600021916003F62C214FF07E5239
:104E30000A6003F65C410A60042283F8682CAC4BDC
:104E400093F8893013F0FF0F04D1AA4AA1F1280387
:104E50001A603AE0A64B93F88930DBB2022B03D1FB
:104E6000A54AA64B1A6030E0A14B93F88930DBB21B
:104E7000032B27D19E4B93F88A30DBB207EE903A92
:104E8000F8EE677A9D4CC4ED007AD4ED007AB3EE6B
:104E90000E7A77EE877AC4ED007AD4ED007AB2EE1E
:104EA000040AC7EE807AC4ED007AD4ED007AF1EE00
:104EB000677AC4ED007AD4ED000A17F051F884ED5A
:104EC000000A02E08E4A8D4B1A60894ED6ED047AB4
:104ED000F8EEE77A844D05F63844C4ED007AD4ED57
:104EE000007AB3EE047A77EEC77AC4ED007AD4ED97
:104EF000007AB2EE048AC7EE887AC4ED007AD4ED67
:104F0000000AB0EE480A17F02BF884ED000A96F874
:104F1000E630DBB207EE903AF8EE677A05F54664C4
:104F2000C4ED007AD4ED007A9FED767A77EE877A39
:104F3000C4ED007AD4ED007AC7EE887AC4ED007A29
:104F4000D4ED007AF1EE677AC4ED007AD4ED000A70
:104F5000B0EE480A17F004F884ED000A05F63C4369
:104F6000694A1A6005F54465684B2B6096F88B30EA
:104F7000DBB2062B35D896F88B30013307EE903A2A
:104F8000F8EEE77A9FED627A67EE877AA4F54664D9
:104F900004F63C43C3ED007A96F88B30013307EEFC
:104FA000903AF8EEE77A9FED5B7AC7EE277AC5ED87
:104FB000007A96F88B30581C07EE900AF8EEE77AE4
:104FC00017EE900A19F0F4F802460B4644A1D1E915
:104FD000000119F06BFA19F0D9FB04F66444206063
:104FE00020E0414C04F63C434B4A1A6004F544630C
:104FF000464A1A603E4B93F88B30581C07EE900AD5
:10500000F8EEE77A17EE900A19F0D2F802460B464E
:1050100033A1D1E9000119F049FA19F0B7FB04F600
:10502000644420600EF094FA0EF064FA2E4B03F6FE
:1050300084413A4A0A6003F688410A6003F68C42CA
:105040004FF07E51116003F5496100220A6003F6BA
:105050009C410A6003F694410A6003F698410A6095
:10506000002283F8292A2E4A0A2313802D4B03F6A7
:105070001811916003F51463D3602B4B03F1C00149
:10508000002243F8042B8B42FBD1274A244B5A6061
:10509000174BD3F8F4302F2B05D9154BD3F8F43038
:1050A000B3F5007F03D9C022114BC3F8F420FFF7FA
:1050B000E5FB0F4B18680021FCF792FF1B4B00BF6C
:1050C000013BFCD1FFF74EF919481A498022FFF73E
:1050D000C3F90022044B83F8282ABDEC028B70BD73
:1050E0008716D9CEF753F53FE8AF00209C9F0020EC
:1050F000F0100020ACC5273717B751391CBC002071
:1051000082A87B3800000C4200007A4400C0AA4408
:1051100000007A440000804500903B45F304353F91
:10512000B09F0020902E03082C5C002040420F000E
:10513000185A0020545800202DE9F04F2DED088B0F
:1051400095B00D900E910992A14B93F8783013F021
:10515000FF0F40F079879F4BD3F8F83013B99C4B81
:10516000DB6973B100249B4BC3F8F84020460E99CD
:10517000099D2A4612F012FC20460D992A4612F08B
:105180000DFC954B93F8688C5FFA88F8099A92FBAE
:10519000F8F81FFA88F311938D4B5B7D13F0FF0F26
:1051A00000F023828A4BD3F8EC30002B40F01D82B4
:1051B000874B93F87A30DBB2032B00F01682844BD6
:1051C00093F87F30DBB2052B00F00F82804B5B7DC4
:1051D000DBB207EE903AFBEEEF7ACDED0F7A02EB01
:1051E000D2735FEA630801F05A847A4BD3ED3F8AA9
:1051F00093F8007193F801A1784B1D780D9B103343
:1052000000220C92744EDFF8CC919B46CDF8408082
:105210005C463BF8102C13B2002BB8BF5B4208EE83
:10522000103AB8EEC88A06F64843D3ED007A88EE05
:10523000278A09EB4A03A3F804210AF102085FFA5E
:1052400088F80AF1010A5FFA8AFA09EB4A0A3BF880
:105250000E3CAAF8043106F67443D3ED007A06F644
:10526000784393ED007A67EEA88A68EE077A78EEC5
:10527000A77A17EE900A18F09BFFCDE904010F986A
:1052800018F096FF02460B460020554918F030FEF4
:10529000CDE9020118EE100A18F08AFFCDE90601E7
:1052A000DDE90401DDE9022318F0D6FF02460B46D2
:1052B000DDE9060119F060FA18B1002F08BF1027C8
:1052C00011E087B96B1CDBB209EB4502B2F804218F
:1052D0002BF8102C0235EDB209EB4303B3F804317F
:1052E0002BF80E3C06E0002324F8103C24F80E3C7A
:1052F000013FFFB205F01E0508F01E0334F80C1C38
:105300000AB2002AB8BF524207EE902AF8EEE77AB6
:1053100006F6484292ED007A09EB4302A2F8041126
:1053200003F10208134634F80A2CA3F80621C7EE4D
:10533000877A17EE900A18F03BFFCDE90601DDE908
:1053400004011FA3D3E9002318F086FFCDE904016F
:10535000DDE906011CA3D3E9002318F07DFF024616
:105360000B46DDE9040118F0C5FD19F00FFA18F03D
:105370001FFF02460B46CDE90A23DDE9020118F0C2
:105380006BFF02460B46DDE9060119F0F5F918B18D
:10539000002F08BF102725E027BB6B1CDBB209EBF1
:1053A0004502B2F8042124F80C2C0235EDB209EBC9
:1053B0004303B3F8043124F80A3C1AE0AFF3008049
:1053C0002B8716D9CEF7EF3FFCA9F1D24D62503FA3
:1053D000F010002000070020E8AF0020AC00002003
:1053E00000802740002324F80C3C24F80A3C013FAD
:1053F000FFB205F01E0508F01E0334F8081C0AB2BF
:10540000002AB8BF524207EE902AF8EEE77A06F675
:10541000484292ED007A09EB4302A2F8041103F12D
:105420000208134634F8062CA3F80621C7EE877A43
:1054300017EE900A18F0BCFECDE90401DDE90A017F
:105440000FF2FC43D3E9002318F006FFCDE9060173
:10545000DDE904010FF2F043D3E9002318F0FCFE6C
:1054600002460B46DDE9060118F044FD19F08EF9FD
:1054700018F09EFE02460B46CDE90623DDE9020147
:1054800018F0EAFE02460B46DDE9040119F074F952
:1054900018B1002F08BF102711E087B96B1CDBB2D1
:1054A00009EB4502B2F8042124F8082C0235EDB2CC
:1054B00009EB4303B3F8043124F8063C06E000236B
:1054C00024F8083C24F8063C013FFFB205F01E0515
:1054D00008F01E0334F8041C0AB2002AB8BF524276
:1054E00007EE902AF8EEE77A06F6484292ED007A47
:1054F00009EB4302A2F8041103F10208134634F841
:10550000022CA3F80621C7EE877A17EE900A18F04E
:105510004FFECDE90401DDE906010FF22443D3E992
:10552000002318F099FECDE90601DDE904010FF230
:105530001843D3E9002318F08FFE02460B46DDE93D
:10554000060118F0D7FC19F021F908EE900A18F0BE
:105550002FFE02460B46DDE9020118F07DFE0246F1
:105560000B46DDE9040119F007F918B1002F08BF57
:10557000102711E087B96B1CDBB209EB4502B2F8CA
:10558000042124F8042C0235EDB209EB4303B3F8EF
:10559000043124F8023C06E0002324F8043C24F8FB
:1055A000023C013FFFB205F01E0508F01E0A0C9BED
:1055B00004330C930BF1100B109A9342FFF428AEB6
:1055C000D74B1D70D74B83F801A183F80071C3ED51
:1055D0003F8A0022C3F848210022C3F84C21099BCE
:1055E00003EBD3734FEA63080CE0CE4B0022C3F801
:1055F00048210022C3F84C21099B03EBD3735FEAD7
:10560000630861D00D9A04320021C74B0E46012574
:10561000C64C93F8480E10F0FF0F22D1D3F82C0E91
:1056200032F8027C143003EB40008780D3F82C0E54
:105630000130C3F82C0ED3F82C0E32F8047C143051
:1056400003EB40008780D3F82C0E0130C3F82C0EFA
:10565000D3F82C0EB0F5007F24BFC3F82C6E83F86E
:10566000485E104632F9047CB7F5806F0FDDC4F850
:10567000545C32F9047CB7F5006F08DDC4F8505C67
:1056800032F9047CB7F5805FC8BFC4F84C5C30F9D0
:10569000047C07EE907AF8EEE77A04EB8107C7ED19
:1056A000007A30F9020C07EE900AF8EEE77A01F181
:1056B000400004EB8000C0ED017A01310432414525
:1056C000A7D1984BC3F84C81994D95ED130A974C8F
:1056D00020462146424615F0A5FD95ED140A04F535
:1056E00082710846424615F09DFD95F82C3113F065
:1056F000FF0F09D095F82C31DBB2012B09980CBFB4
:1057000001210021FFF700F8884C8A4821462246F3
:10571000434614F0A9FA04F58272874811464346BD
:1057200014F0A2FA824B93F87A30DBB2042B00F229
:105730000F81DFE803F0030D172F03007B4A1046AB
:1057400002F5827102F50272434615F0AFFF08E1DF
:10575000764A104602F5827102F50272434615F050
:105760003DFAFEE0724BD3F828314BB96F4A104630
:1057700002F5827102F50272434615F097FFF0E0E0
:105780006A4A104602F5827102F50272434615F02C
:1057900025FAE6E0654C04F50275204621462A46C6
:1057A000434615F079FE04F5827104F5437408460A
:1057B0002246434615F070FE284621462A464346B7
:1057C00015F074FF0022574BC3F84C21B8F1000FBD
:1057D00000F099801446A5F5027600271D4604F1D5
:1057E000820306EB8303D3ED007AF5EEC07AF1EE87
:1057F00010FA10DDB1EEE70AB4EE400AF1EE10FA4D
:1058000003D0B0EE670A16F079FD823406EB84040B
:1058100084ED000A03E0823406EB84042760D5F8A7
:105820004C315C1CC5F84C41833306EB8303D3ED4C
:10583000007AF5EEC07AF1EE10FA10DDB1EEE70A6B
:10584000B4EE400AF1EE10FA03D0B0EE670A16F09B
:1058500055FD823406EB840484ED000A03E08234B3
:1058600006EB84042760D5F84C315C1CC5F84C412C
:10587000833306EB8303D3ED007AF5EEC07AF1EEC5
:1058800010FA10DDB1EEE70AB4EE400AF1EE10FABC
:1058900003D0B0EE670A16F031FD823406EB8404C3
:1058A00084ED000A03E0823406EB84042760D5F817
:1058B0004C315C1CC5F84C41833306EB8303D3EDBC
:1058C000007AF5EEC07AF1EE10FA10DDB1EEE70ADB
:1058D000B4EE400AF1EE10FA03D0B0EE670A16F00B
:1058E0000DFD823406EB840484ED000A03E082346B
:1058F00006EB84042760D5F84C410134C5F84C41CF
:105900004445FFF46CAF0D48414613AA12F012FA59
:10591000DDED137A77EEA77ACDED137A21E000BFA3
:10592000AC00002000070020088A0020E8AF00201B
:10593000F0100020D09E0020205C0020F0B100205C
:105940002B8716D9CEF7EF3FFCA9F1D24D62503F1D
:10595000B34A104602F5827102F50272434615F011
:10596000A5FEB04CB04821462246434614F0C8FB81
:1059700094F8203813F0FF0F4CD1AC4B93F8F03073
:1059800013F0040F46D0A94B93F87A30DBB2022B08
:1059900040D0A64BD3F80031002B3BD1BDF9444099
:1059A00004EBD47464109F4EA14DD5F85011A14F53
:1059B000304607EB8101224612F062F8D5F85421F7
:1059C000009601949C48314607EB82029B4B13F0F2
:1059D00013FAD5F850312344C5F850311C44C5F8AA
:1059E0005441924AD2F8FC20013A934205D38F4A9F
:1059F000D2F8FC209B1AC5F850318C4BD3F8FC3000
:105A0000013B9C4206D3894BD3F8FC30E41A884B07
:105A1000C3F85441854B93F8F03013F0010F72D066
:105A2000824B93F8F03013F0020F6CD17C4B93F85B
:105A3000283A13F0FF0F66D17C4BD3F80031002BCE
:105A400061D1BDF9445005EBD5756D10754C784F9B
:105A5000D7F858117A4E204606EB81012A4612F0FB
:105A60000FF8D7F85C21774B0093019576482146D3
:105A700006EB8202234613F0BFF9A4F50274D4EDBD
:105A8000827AF0EEE77AFCEEE77A704B17EE902A16
:105A900003FB02F353B9D4F87C3CB3F5006F09D291
:105AA000D4F87C3C0133C4F87C3C03E000225C4B1E
:105AB000C3F87C2C5A4BD3F8082203F548631A60CC
:105AC0005B4AD2F858312B44C2F858311D44C2F811
:105AD0005C51564AD2F8F420013A934206D3534A15
